{
  "_format": "hh-sol-artifact-1",
  "contractName": "MyNFT",
  "sourceName": "contracts/nft.sol",
  "abi": [
    {
      "inputs": [
        {
          "internalType": "string",
          "name": "_baseURI",
          "type": "string"
        },
        {
          "internalType": "uint256",
          "name": "_presalePrice",
          "type": "uint256"
        },
        {
          "internalType": "uint256",
          "name": "_publicSalePrice",
          "type": "uint256"
        },
        {
          "internalType": "uint256",
          "name": "_maxMintPerAddress",
          "type": "uint256"
        },
        {
          "internalType": "uint256",
          "name": "_maxSupply",
          "type": "uint256"
        },
        {
          "internalType": "uint256",
          "name": "_presaleStartTime",
          "type": "uint256"
        },
        {
          "internalType": "uint256",
          "name": "_publicSaleStartTime",
          "type": "uint256"
        }
      ],
      "stateMutability": "nonpayable",
      "type": "constructor"
    },
    {
      "inputs": [
        {
          "internalType": "address",
          "name": "sender",
          "type": "address"
        },
        {
          "internalType": "uint256",
          "name": "tokenId",
          "type": "uint256"
        },
        {
          "internalType": "address",
          "name": "owner",
          "type": "address"
        }
      ],
      "name": "ERC721IncorrectOwner",
      "type": "error"
    },
    {
      "inputs": [
        {
          "internalType": "address",
          "name": "operator",
          "type": "address"
        },
        {
          "internalType": "uint256",
          "name": "tokenId",
          "type": "uint256"
        }
      ],
      "name": "ERC721InsufficientApproval",
      "type": "error"
    },
    {
      "inputs": [
        {
          "internalType": "address",
          "name": "approver",
          "type": "address"
        }
      ],
      "name": "ERC721InvalidApprover",
      "type": "error"
    },
    {
      "inputs": [
        {
          "internalType": "address",
          "name": "operator",
          "type": "address"
        }
      ],
      "name": "ERC721InvalidOperator",
      "type": "error"
    },
    {
      "inputs": [
        {
          "internalType": "address",
          "name": "owner",
          "type": "address"
        }
      ],
      "name": "ERC721InvalidOwner",
      "type": "error"
    },
    {
      "inputs": [
        {
          "internalType": "address",
          "name": "receiver",
          "type": "address"
        }
      ],
      "name": "ERC721InvalidReceiver",
      "type": "error"
    },
    {
      "inputs": [
        {
          "internalType": "address",
          "name": "sender",
          "type": "address"
        }
      ],
      "name": "ERC721InvalidSender",
      "type": "error"
    },
    {
      "inputs": [
        {
          "internalType": "uint256",
          "name": "tokenId",
          "type": "uint256"
        }
      ],
      "name": "ERC721NonexistentToken",
      "type": "error"
    },
    {
      "inputs": [
        {
          "internalType": "address",
          "name": "owner",
          "type": "address"
        }
      ],
      "name": "OwnableInvalidOwner",
      "type": "error"
    },
    {
      "inputs": [
        {
          "internalType": "address",
          "name": "account",
          "type": "address"
        }
      ],
      "name": "OwnableUnauthorizedAccount",
      "type": "error"
    },
    {
      "anonymous": false,
      "inputs": [
        {
          "indexed": true,
          "internalType": "address",
          "name": "owner",
          "type": "address"
        },
        {
          "indexed": true,
          "internalType": "address",
          "name": "approved",
          "type": "address"
        },
        {
          "indexed": true,
          "internalType": "uint256",
          "name": "tokenId",
          "type": "uint256"
        }
      ],
      "name": "Approval",
      "type": "event"
    },
    {
      "anonymous": false,
      "inputs": [
        {
          "indexed": true,
          "internalType": "address",
          "name": "owner",
          "type": "address"
        },
        {
          "indexed": true,
          "internalType": "address",
          "name": "operator",
          "type": "address"
        },
        {
          "indexed": false,
          "internalType": "bool",
          "name": "approved",
          "type": "bool"
        }
      ],
      "name": "ApprovalForAll",
      "type": "event"
    },
    {
      "anonymous": false,
      "inputs": [
        {
          "indexed": true,
          "internalType": "address",
          "name": "previousOwner",
          "type": "address"
        },
        {
          "indexed": true,
          "internalType": "address",
          "name": "newOwner",
          "type": "address"
        }
      ],
      "name": "OwnershipTransferred",
      "type": "event"
    },
    {
      "anonymous": false,
      "inputs": [
        {
          "indexed": true,
          "internalType": "address",
          "name": "from",
          "type": "address"
        },
        {
          "indexed": true,
          "internalType": "address",
          "name": "to",
          "type": "address"
        },
        {
          "indexed": true,
          "internalType": "uint256",
          "name": "tokenId",
          "type": "uint256"
        }
      ],
      "name": "Transfer",
      "type": "event"
    },
    {
      "anonymous": false,
      "inputs": [
        {
          "indexed": false,
          "internalType": "address[]",
          "name": "newWhitelist",
          "type": "address[]"
        }
      ],
      "name": "WhitelistUpdated",
      "type": "event"
    },
    {
      "inputs": [
        {
          "internalType": "address",
          "name": "to",
          "type": "address"
        },
        {
          "internalType": "uint256",
          "name": "tokenId",
          "type": "uint256"
        }
      ],
      "name": "approve",
      "outputs": [],
      "stateMutability": "nonpayable",
      "type": "function"
    },
    {
      "inputs": [
        {
          "internalType": "address",
          "name": "owner",
          "type": "address"
        }
      ],
      "name": "balanceOf",
      "outputs": [
        {
          "internalType": "uint256",
          "name": "",
          "type": "uint256"
        }
      ],
      "stateMutability": "view",
      "type": "function"
    },
    {
      "inputs": [],
      "name": "baseURI",
      "outputs": [
        {
          "internalType": "string",
          "name": "",
          "type": "string"
        }
      ],
      "stateMutability": "view",
      "type": "function"
    },
    {
      "inputs": [
        {
          "internalType": "uint256",
          "name": "tokenId",
          "type": "uint256"
        }
      ],
      "name": "getApproved",
      "outputs": [
        {
          "internalType": "address",
          "name": "",
          "type": "address"
        }
      ],
      "stateMutability": "view",
      "type": "function"
    },
    {
      "inputs": [
        {
          "internalType": "address",
          "name": "user",
          "type": "address"
        }
      ],
      "name": "getCurrentPrice",
      "outputs": [
        {
          "internalType": "uint256",
          "name": "",
          "type": "uint256"
        }
      ],
      "stateMutability": "view",
      "type": "function"
    },
    {
      "inputs": [
        {
          "internalType": "address",
          "name": "user",
          "type": "address"
        }
      ],
      "name": "getRemainingMints",
      "outputs": [
        {
          "internalType": "uint256",
          "name": "",
          "type": "uint256"
        }
      ],
      "stateMutability": "view",
      "type": "function"
    },
    {
      "inputs": [],
      "name": "getWhitelist",
      "outputs": [
        {
          "internalType": "address[]",
          "name": "",
          "type": "address[]"
        }
      ],
      "stateMutability": "view",
      "type": "function"
    },
    {
      "inputs": [
        {
          "internalType": "address",
          "name": "owner",
          "type": "address"
        },
        {
          "internalType": "address",
          "name": "operator",
          "type": "address"
        }
      ],
      "name": "isApprovedForAll",
      "outputs": [
        {
          "internalType": "bool",
          "name": "",
          "type": "bool"
        }
      ],
      "stateMutability": "view",
      "type": "function"
    },
    {
      "inputs": [
        {
          "internalType": "address",
          "name": "",
          "type": "address"
        }
      ],
      "name": "isWhitelisted",
      "outputs": [
        {
          "internalType": "bool",
          "name": "",
          "type": "bool"
        }
      ],
      "stateMutability": "view",
      "type": "function"
    },
    {
      "inputs": [],
      "name": "maxMintPerAddress",
      "outputs": [
        {
          "internalType": "uint256",
          "name": "",
          "type": "uint256"
        }
      ],
      "stateMutability": "view",
      "type": "function"
    },
    {
      "inputs": [],
      "name": "maxSupply",
      "outputs": [
        {
          "internalType": "uint256",
          "name": "",
          "type": "uint256"
        }
      ],
      "stateMutability": "view",
      "type": "function"
    },
    {
      "inputs": [
        {
          "internalType": "address",
          "name": "recipient",
          "type": "address"
        }
      ],
      "name": "mintNFT",
      "outputs": [
        {
          "internalType": "uint256",
          "name": "",
          "type": "uint256"
        }
      ],
      "stateMutability": "payable",
      "type": "function"
    },
    {
      "inputs": [
        {
          "internalType": "address",
          "name": "",
          "type": "address"
        }
      ],
      "name": "mintedPerAddress",
      "outputs": [
        {
          "internalType": "uint256",
          "name": "",
          "type": "uint256"
        }
      ],
      "stateMutability": "view",
      "type": "function"
    },
    {
      "inputs": [],
      "name": "name",
      "outputs": [
        {
          "internalType": "string",
          "name": "",
          "type": "string"
        }
      ],
      "stateMutability": "view",
      "type": "function"
    },
    {
      "inputs": [],
      "name": "owner",
      "outputs": [
        {
          "internalType": "address",
          "name": "",
          "type": "address"
        }
      ],
      "stateMutability": "view",
      "type": "function"
    },
    {
      "inputs": [
        {
          "internalType": "uint256",
          "name": "tokenId",
          "type": "uint256"
        }
      ],
      "name": "ownerOf",
      "outputs": [
        {
          "internalType": "address",
          "name": "",
          "type": "address"
        }
      ],
      "stateMutability": "view",
      "type": "function"
    },
    {
      "inputs": [],
      "name": "paused",
      "outputs": [
        {
          "internalType": "bool",
          "name": "",
          "type": "bool"
        }
      ],
      "stateMutability": "view",
      "type": "function"
    },
    {
      "inputs": [],
      "name": "presalePrice",
      "outputs": [
        {
          "internalType": "uint256",
          "name": "",
          "type": "uint256"
        }
      ],
      "stateMutability": "view",
      "type": "function"
    },
    {
      "inputs": [],
      "name": "presaleStartTime",
      "outputs": [
        {
          "internalType": "uint256",
          "name": "",
          "type": "uint256"
        }
      ],
      "stateMutability": "view",
      "type": "function"
    },
    {
      "inputs": [],
      "name": "publicSalePrice",
      "outputs": [
        {
          "internalType": "uint256",
          "name": "",
          "type": "uint256"
        }
      ],
      "stateMutability": "view",
      "type": "function"
    },
    {
      "inputs": [],
      "name": "publicSaleStartTime",
      "outputs": [
        {
          "internalType": "uint256",
          "name": "",
          "type": "uint256"
        }
      ],
      "stateMutability": "view",
      "type": "function"
    },
    {
      "inputs": [],
      "name": "renounceOwnership",
      "outputs": [],
      "stateMutability": "nonpayable",
      "type": "function"
    },
    {
      "inputs": [
        {
          "internalType": "address",
          "name": "from",
          "type": "address"
        },
        {
          "internalType": "address",
          "name": "to",
          "type": "address"
        },
        {
          "internalType": "uint256",
          "name": "tokenId",
          "type": "uint256"
        }
      ],
      "name": "safeTransferFrom",
      "outputs": [],
      "stateMutability": "nonpayable",
      "type": "function"
    },
    {
      "inputs": [
        {
          "internalType": "address",
          "name": "from",
          "type": "address"
        },
        {
          "internalType": "address",
          "name": "to",
          "type": "address"
        },
        {
          "internalType": "uint256",
          "name": "tokenId",
          "type": "uint256"
        },
        {
          "internalType": "bytes",
          "name": "data",
          "type": "bytes"
        }
      ],
      "name": "safeTransferFrom",
      "outputs": [],
      "stateMutability": "nonpayable",
      "type": "function"
    },
    {
      "inputs": [
        {
          "internalType": "address",
          "name": "operator",
          "type": "address"
        },
        {
          "internalType": "bool",
          "name": "approved",
          "type": "bool"
        }
      ],
      "name": "setApprovalForAll",
      "outputs": [],
      "stateMutability": "nonpayable",
      "type": "function"
    },
    {
      "inputs": [
        {
          "internalType": "string",
          "name": "_newBaseURI",
          "type": "string"
        }
      ],
      "name": "setBaseURI",
      "outputs": [],
      "stateMutability": "nonpayable",
      "type": "function"
    },
    {
      "inputs": [
        {
          "internalType": "uint256",
          "name": "_newMax",
          "type": "uint256"
        }
      ],
      "name": "setMaxMintPerAddress",
      "outputs": [],
      "stateMutability": "nonpayable",
      "type": "function"
    },
    {
      "inputs": [
        {
          "internalType": "bool",
          "name": "_paused",
          "type": "bool"
        }
      ],
      "name": "setPaused",
      "outputs": [],
      "stateMutability": "nonpayable",
      "type": "function"
    },
    {
      "inputs": [
        {
          "internalType": "uint256",
          "name": "_newPrice",
          "type": "uint256"
        }
      ],
      "name": "setPresalePrice",
      "outputs": [],
      "stateMutability": "nonpayable",
      "type": "function"
    },
    {
      "inputs": [
        {
          "internalType": "uint256",
          "name": "_newStartTime",
          "type": "uint256"
        }
      ],
      "name": "setPresaleStartTime",
      "outputs": [],
      "stateMutability": "nonpayable",
      "type": "function"
    },
    {
      "inputs": [
        {
          "internalType": "uint256",
          "name": "_newPrice",
          "type": "uint256"
        }
      ],
      "name": "setPublicSalePrice",
      "outputs": [],
      "stateMutability": "nonpayable",
      "type": "function"
    },
    {
      "inputs": [
        {
          "internalType": "uint256",
          "name": "_newStartTime",
          "type": "uint256"
        }
      ],
      "name": "setPublicSaleStartTime",
      "outputs": [],
      "stateMutability": "nonpayable",
      "type": "function"
    },
    {
      "inputs": [
        {
          "internalType": "bytes4",
          "name": "interfaceId",
          "type": "bytes4"
        }
      ],
      "name": "supportsInterface",
      "outputs": [
        {
          "internalType": "bool",
          "name": "",
          "type": "bool"
        }
      ],
      "stateMutability": "view",
      "type": "function"
    },
    {
      "inputs": [],
      "name": "symbol",
      "outputs": [
        {
          "internalType": "string",
          "name": "",
          "type": "string"
        }
      ],
      "stateMutability": "view",
      "type": "function"
    },
    {
      "inputs": [
        {
          "internalType": "uint256",
          "name": "tokenId",
          "type": "uint256"
        }
      ],
      "name": "tokenURI",
      "outputs": [
        {
          "internalType": "string",
          "name": "",
          "type": "string"
        }
      ],
      "stateMutability": "view",
      "type": "function"
    },
    {
      "inputs": [
        {
          "internalType": "address",
          "name": "_owner",
          "type": "address"
        }
      ],
      "name": "tokensOfOwner",
      "outputs": [
        {
          "internalType": "uint256[]",
          "name": "",
          "type": "uint256[]"
        }
      ],
      "stateMutability": "view",
      "type": "function"
    },
    {
      "inputs": [
        {
          "internalType": "address",
          "name": "from",
          "type": "address"
        },
        {
          "internalType": "address",
          "name": "to",
          "type": "address"
        },
        {
          "internalType": "uint256",
          "name": "tokenId",
          "type": "uint256"
        }
      ],
      "name": "transferFrom",
      "outputs": [],
      "stateMutability": "nonpayable",
      "type": "function"
    },
    {
      "inputs": [
        {
          "internalType": "address",
          "name": "newOwner",
          "type": "address"
        }
      ],
      "name": "transferOwnership",
      "outputs": [],
      "stateMutability": "nonpayable",
      "type": "function"
    },
    {
      "inputs": [
        {
          "internalType": "address[]",
          "name": "_newWhitelist",
          "type": "address[]"
        }
      ],
      "name": "updateWhitelist",
      "outputs": [],
      "stateMutability": "nonpayable",
      "type": "function"
    },
    {
      "inputs": [
        {
          "internalType": "uint256",
          "name": "",
          "type": "uint256"
        }
      ],
      "name": "whitelist",
      "outputs": [
        {
          "internalType": "address",
          "name": "",
          "type": "address"
        }
      ],
      "stateMutability": "view",
      "type": "function"
    },
    {
      "inputs": [],
      "name": "withdraw",
      "outputs": [],
      "stateMutability": "nonpayable",
      "type": "function"
    }
  ],
  "bytecode": "0x608060405260006007553480156200001657600080fd5b50604051620049273803806200492783398181016040528101906200003c91906200044e565b336040518060400160405280600581526020017f4d794e46540000000000000000000000000000000000000000000000000000008152506040518060400160405280600481526020017f4d4e4654000000000000000000000000000000000000000000000000000000008152508160009081620000ba919062000761565b508060019081620000cc919062000761565b505050600073ffffffffffffffffffffffffffffffffffffffff168173ffffffffffffffffffffffffffffffffffffffff1603620001445760006040517f1e4fbdf70000000000000000000000000000000000000000000000000000000081526004016200013b91906200088d565b60405180910390fd5b6200015581620001ba60201b60201c565b50866008908162000167919062000761565b508560098190555084600a8190555083600b8190555082600c8190555081600e8190555080600f819055506000601060006101000a81548160ff02191690831515021790555050505050505050620008aa565b6000600660009054906101000a900473ffffffffffffffffffffffffffffffffffffffff16905081600660006101000a81548173ffffffffffffffffffffffffffffffffffffffff021916908373ffffffffffffffffffffffffffffffffffffffff1602179055508173ffffffffffffffffffffffffffffffffffffffff168173ffffffffffffffffffffffffffffffffffffffff167f8be0079c531659141344cd1fd0a4f28419497f9722a3daafe3b4186f6b6457e060405160405180910390a35050565b6000604051905090565b600080fd5b600080fd5b600080fd5b600080fd5b6000601f19601f8301169050919050565b7f4e487b7100000000000000000000000000000000000000000000000000000000600052604160045260246000fd5b620002e9826200029e565b810181811067ffffffffffffffff821117156200030b576200030a620002af565b5b80604052505050565b60006200032062000280565b90506200032e8282620002de565b919050565b600067ffffffffffffffff821115620003515762000350620002af565b5b6200035c826200029e565b9050602081019050919050565b60005b83811015620003895780820151818401526020810190506200036c565b60008484015250505050565b6000620003ac620003a68462000333565b62000314565b905082815260208101848484011115620003cb57620003ca62000299565b5b620003d884828562000369565b509392505050565b600082601f830112620003f857620003f762000294565b5b81516200040a84826020860162000395565b91505092915050565b6000819050919050565b620004288162000413565b81146200043457600080fd5b50565b60008151905062000448816200041d565b92915050565b600080600080600080600060e0888a03121562000470576200046f6200028a565b5b600088015167ffffffffffffffff8111156200049157620004906200028f565b5b6200049f8a828b01620003e0565b9750506020620004b28a828b0162000437565b9650506040620004c58a828b0162000437565b9550506060620004d88a828b0162000437565b9450506080620004eb8a828b0162000437565b93505060a0620004fe8a828b0162000437565b92505060c0620005118a828b0162000437565b91505092959891949750929550565b600081519050919050565b7f4e487b7100000000000000000000000000000000000000000000000000000000600052602260045260246000fd5b600060028204905060018216806200057357607f821691505b6020821081036200058957620005886200052b565b5b50919050565b60008190508160005260206000209050919050565b60006020601f8301049050919050565b600082821b905092915050565b600060088302620005f37fffffffffffffffffffffffffffffffffffffffffffffffffffffffffffffffff82620005b4565b620005ff8683620005b4565b95508019841693508086168417925050509392505050565b6000819050919050565b6000620006426200063c620006368462000413565b62000617565b62000413565b9050919050565b6000819050919050565b6200065e8362000621565b620006766200066d8262000649565b848454620005c1565b825550505050565b600090565b6200068d6200067e565b6200069a81848462000653565b505050565b5b81811015620006c257620006b660008262000683565b600181019050620006a0565b5050565b601f8211156200071157620006db816200058f565b620006e684620005a4565b81016020851015620006f6578190505b6200070e6200070585620005a4565b8301826200069f565b50505b505050565b600082821c905092915050565b6000620007366000198460080262000716565b1980831691505092915050565b600062000751838362000723565b9150826002028217905092915050565b6200076c8262000520565b67ffffffffffffffff811115620007885762000787620002af565b5b6200079482546200055a565b620007a1828285620006c6565b600060209050601f831160018114620007d95760008415620007c4578287015190505b620007d0858262000743565b86555062000840565b601f198416620007e9866200058f565b60005b828110156200081357848901518255600182019150602085019450602081019050620007ec565b868310156200083357848901516200082f601f89168262000723565b8355505b6001600288020188555050505b505050505050565b600073ffffffffffffffffffffffffffffffffffffffff82169050919050565b6000620008758262000848565b9050919050565b620008878162000868565b82525050565b6000602082019050620008a460008301846200087c565b92915050565b61406d80620008ba6000396000f3fe6080604052600436106102455760003560e01c80636c0360eb1161013957806395d89b41116100b6578063c87b56dd1161007a578063c87b56dd14610890578063d01f63f5146108cd578063d445b978146108f8578063d5abeb0114610935578063e985e9c514610960578063f2fde38b1461099d57610245565b806395d89b41146107bd5780639b6860c8146107e8578063a22cb46514610813578063a82524b21461083c578063b88d4fde1461086757610245565b80637ebd1b30116100fd5780637ebd1b301461069e5780637fa803c3146106db5780638462151c1461071857806384cc315b146107555780638da5cb5b1461079257610245565b80636c0360eb146105cd5780636d5d40c6146105f857806370a0823114610621578063715018a61461065e578063791a25191461067557610245565b80633549345e116101c757806355f804b31161018b57806355f804b3146104e6578063572849c41461050f5780635c975abb1461053a5780636352211e146105655780636bb7b1d9146105a257610245565b80633549345e146104105780633af32abf146104395780633ccfd60b1461047657806342842e0e1461048d57806354ba0f27146104b657610245565b806316c38b3c1161020e57806316c38b3c146103435780631e14d44b1461036c57806323b872dd14610395578063296cab55146103be57806335377214146103e757610245565b80620e7fa81461024a57806301ffc9a71461027557806306fdde03146102b2578063081812fc146102dd578063095ea7b31461031a575b600080fd5b34801561025657600080fd5b5061025f6109c6565b60405161026c9190612a45565b60405180910390f35b34801561028157600080fd5b5061029c60048036038101906102979190612acc565b6109cc565b6040516102a99190612b14565b60405180910390f35b3480156102be57600080fd5b506102c7610aae565b6040516102d49190612bbf565b60405180910390f35b3480156102e957600080fd5b5061030460048036038101906102ff9190612c0d565b610b40565b6040516103119190612c7b565b60405180910390f35b34801561032657600080fd5b50610341600480360381019061033c9190612cc2565b610b5c565b005b34801561034f57600080fd5b5061036a60048036038101906103659190612d2e565b610b72565b005b34801561037857600080fd5b50610393600480360381019061038e9190612c0d565b610b97565b005b3480156103a157600080fd5b506103bc60048036038101906103b79190612d5b565b610ba9565b005b3480156103ca57600080fd5b506103e560048036038101906103e09190612c0d565b610cab565b005b3480156103f357600080fd5b5061040e60048036038101906104099190612ef6565b610d43565b005b34801561041c57600080fd5b5061043760048036038101906104329190612c0d565b610f2a565b005b34801561044557600080fd5b50610460600480360381019061045b9190612f3f565b610f3c565b60405161046d9190612b14565b60405180910390f35b34801561048257600080fd5b5061048b610f5c565b005b34801561049957600080fd5b506104b460048036038101906104af9190612d5b565b610fb4565b005b6104d060048036038101906104cb9190612f3f565b610fd4565b6040516104dd9190612a45565b60405180910390f35b3480156104f257600080fd5b5061050d60048036038101906105089190613021565b611372565b005b34801561051b57600080fd5b5061052461138d565b6040516105319190612a45565b60405180910390f35b34801561054657600080fd5b5061054f611393565b60405161055c9190612b14565b60405180910390f35b34801561057157600080fd5b5061058c60048036038101906105879190612c0d565b6113a6565b6040516105999190612c7b565b60405180910390f35b3480156105ae57600080fd5b506105b76113b8565b6040516105c49190612a45565b60405180910390f35b3480156105d957600080fd5b506105e26113be565b6040516105ef9190612bbf565b60405180910390f35b34801561060457600080fd5b5061061f600480360381019061061a9190612c0d565b61144c565b005b34801561062d57600080fd5b5061064860048036038101906106439190612f3f565b6114e4565b6040516106559190612a45565b60405180910390f35b34801561066a57600080fd5b5061067361159e565b005b34801561068157600080fd5b5061069c60048036038101906106979190612c0d565b6115b2565b005b3480156106aa57600080fd5b506106c560048036038101906106c09190612c0d565b6115c4565b6040516106d29190612c7b565b60405180910390f35b3480156106e757600080fd5b5061070260048036038101906106fd9190612f3f565b611603565b60405161070f9190612a45565b60405180910390f35b34801561072457600080fd5b5061073f600480360381019061073a9190612f3f565b611659565b60405161074c9190613128565b60405180910390f35b34801561076157600080fd5b5061077c60048036038101906107779190612f3f565b61174f565b6040516107899190612a45565b60405180910390f35b34801561079e57600080fd5b506107a7611847565b6040516107b49190612c7b565b60405180910390f35b3480156107c957600080fd5b506107d2611871565b6040516107df9190612bbf565b60405180910390f35b3480156107f457600080fd5b506107fd611903565b60405161080a9190612a45565b60405180910390f35b34801561081f57600080fd5b5061083a6004803603810190610835919061314a565b611909565b005b34801561084857600080fd5b5061085161191f565b60405161085e9190612a45565b60405180910390f35b34801561087357600080fd5b5061088e6004803603810190610889919061322b565b611925565b005b34801561089c57600080fd5b506108b760048036038101906108b29190612c0d565b61194a565b6040516108c49190612bbf565b60405180910390f35b3480156108d957600080fd5b506108e26119f5565b6040516108ef919061336c565b60405180910390f35b34801561090457600080fd5b5061091f600480360381019061091a9190612f3f565b611a83565b60405161092c9190612a45565b60405180910390f35b34801561094157600080fd5b5061094a611a9b565b6040516109579190612a45565b60405180910390f35b34801561096c57600080fd5b506109876004803603810190610982919061338e565b611aa1565b6040516109949190612b14565b60405180910390f35b3480156109a957600080fd5b506109c460048036038101906109bf9190612f3f565b611b35565b005b60095481565b60007f80ac58cd000000000000000000000000000000000000000000000000000000007bffffffffffffffffffffffffffffffffffffffffffffffffffffffff1916827bffffffffffffffffffffffffffffffffffffffffffffffffffffffff19161480610a9757507f5b5e139f000000000000000000000000000000000000000000000000000000007bffffffffffffffffffffffffffffffffffffffffffffffffffffffff1916827bffffffffffffffffffffffffffffffffffffffffffffffffffffffff1916145b80610aa75750610aa682611bbb565b5b9050919050565b606060008054610abd906133fd565b80601f0160208091040260200160405190810160405280929190818152602001828054610ae9906133fd565b8015610b365780601f10610b0b57610100808354040283529160200191610b36565b820191906000526020600020905b815481529060010190602001808311610b1957829003601f168201915b5050505050905090565b6000610b4b82611c25565b50610b5582611cad565b9050919050565b610b6e8282610b69611cea565b611cf2565b5050565b610b7a611d04565b80601060006101000a81548160ff02191690831515021790555050565b610b9f611d04565b80600b8190555050565b600073ffffffffffffffffffffffffffffffffffffffff168273ffffffffffffffffffffffffffffffffffffffff1603610c1b5760006040517f64a0ae92000000000000000000000000000000000000000000000000000000008152600401610c129190612c7b565b60405180910390fd5b6000610c2f8383610c2a611cea565b611d8b565b90508373ffffffffffffffffffffffffffffffffffffffff168173ffffffffffffffffffffffffffffffffffffffff1614610ca5578382826040517f64283d7b000000000000000000000000000000000000000000000000000000008152600401610c9c9392919061342e565b60405180910390fd5b50505050565b610cb3611d04565b428111610cf5576040517f08c379a0000000000000000000000000000000000000000000000000000000008152600401610cec906134d7565b60405180910390fd5b600f548110610d39576040517f08c379a0000000000000000000000000000000000000000000000000000000008152600401610d3090613569565b60405180910390fd5b80600e8190555050565b610d4b611d04565b6000610d556119f5565b905060005b8151811015610ddf5760126000838381518110610d7a57610d79613589565b5b602002602001015173ffffffffffffffffffffffffffffffffffffffff1673ffffffffffffffffffffffffffffffffffffffff16815260200190815260200160002060006101000a81549060ff02191690558080610dd7906135e7565b915050610d5a565b5060005b8251811015610eee576011838281518110610e0157610e00613589565b5b60200260200101519080600181540180825580915050600190039060005260206000200160009091909190916101000a81548173ffffffffffffffffffffffffffffffffffffffff021916908373ffffffffffffffffffffffffffffffffffffffff160217905550600160126000858481518110610e8257610e81613589565b5b602002602001015173ffffffffffffffffffffffffffffffffffffffff1673ffffffffffffffffffffffffffffffffffffffff16815260200190815260200160002060006101000a81548160ff0219169083151502179055508080610ee6906135e7565b915050610de3565b507f0d726ada81867bb7af35296692351e463236617eac73989190bf831e306fb13a82604051610f1e919061336c565b60405180910390a15050565b610f32611d04565b8060098190555050565b60126020528060005260406000206000915054906101000a900460ff1681565b610f64611d04565b610f6c611847565b73ffffffffffffffffffffffffffffffffffffffff166108fc479081150290604051600060405180830381858888f19350505050158015610fb1573d6000803e3d6000fd5b50565b610fcf83838360405180602001604052806000815250611925565b505050565b6000601060009054906101000a900460ff1615611026576040517f08c379a000000000000000000000000000000000000000000000000000000000815260040161101d9061367b565b60405180910390fd5b6000600e5442101561106d576040517f08c379a0000000000000000000000000000000000000000000000000000000008152600401611064906136e7565b60405180910390fd5b600e5442101580156110805750600f5442105b1561111b57601260003373ffffffffffffffffffffffffffffffffffffffff1673ffffffffffffffffffffffffffffffffffffffff16815260200190815260200160002060009054906101000a900460ff16611111576040517f08c379a000000000000000000000000000000000000000000000000000000000815260040161110890613779565b60405180910390fd5b6009549050611183565b600f54421061118257600a549050601260003373ffffffffffffffffffffffffffffffffffffffff1673ffffffffffffffffffffffffffffffffffffffff16815260200190815260200160002060009054906101000a900460ff16156111815760095490505b5b5b803410156111c6576040517f08c379a00000000000000000000000000000000000000000000000000000000081526004016111bd906137e5565b60405180910390fd5b600b54600d60003373ffffffffffffffffffffffffffffffffffffffff1673ffffffffffffffffffffffffffffffffffffffff1681526020019081526020016000205410611249576040517f08c379a000000000000000000000000000000000000000000000000000000000815260040161124090613877565b60405180910390fd5b600c546007541061128f576040517f08c379a0000000000000000000000000000000000000000000000000000000008152600401611286906138e3565b60405180910390fd5b600d60003373ffffffffffffffffffffffffffffffffffffffff1673ffffffffffffffffffffffffffffffffffffffff16815260200190815260200160002060008154809291906112df906135e7565b9190505550600760008154809291906112f7906135e7565b91905055506000600754905061130d8482611fa5565b81341115611368573373ffffffffffffffffffffffffffffffffffffffff166108fc833461133b9190613903565b9081150290604051600060405180830381858888f19350505050158015611366573d6000803e3d6000fd5b505b8092505050919050565b61137a611d04565b80600890816113899190613ae3565b5050565b600b5481565b601060009054906101000a900460ff1681565b60006113b182611c25565b9050919050565b600f5481565b600880546113cb906133fd565b80601f01602080910402602001604051908101604052809291908181526020018280546113f7906133fd565b80156114445780601f1061141957610100808354040283529160200191611444565b820191906000526020600020905b81548152906001019060200180831161142757829003601f168201915b505050505081565b611454611d04565b428111611496576040517f08c379a000000000000000000000000000000000000000000000000000000000815260040161148d90613c27565b60405180910390fd5b600e5481116114da576040517f08c379a00000000000000000000000000000000000000000000000000000000081526004016114d190613cb9565b60405180910390fd5b80600f8190555050565b60008073ffffffffffffffffffffffffffffffffffffffff168273ffffffffffffffffffffffffffffffffffffffff16036115575760006040517f89c62b6400000000000000000000000000000000000000000000000000000000815260040161154e9190612c7b565b60405180910390fd5b600360008373ffffffffffffffffffffffffffffffffffffffff1673ffffffffffffffffffffffffffffffffffffffff168152602001908152602001600020549050919050565b6115a6611d04565b6115b0600061209e565b565b6115ba611d04565b80600a8190555050565b601181815481106115d457600080fd5b906000526020600020016000915054906101000a900473ffffffffffffffffffffffffffffffffffffffff1681565b6000600d60008373ffffffffffffffffffffffffffffffffffffffff1673ffffffffffffffffffffffffffffffffffffffff16815260200190815260200160002054600b546116529190613903565b9050919050565b60606000611666836114e4565b905060008167ffffffffffffffff81111561168457611683612db3565b5b6040519080825280602002602001820160405280156116b25781602001602082028036833780820191505090505b509050600080600190505b6007548111611743578573ffffffffffffffffffffffffffffffffffffffff166116e682612164565b73ffffffffffffffffffffffffffffffffffffffff1603611730578083838151811061171557611714613589565b5b602002602001018181525050818061172c906135e7565b9250505b808061173b906135e7565b9150506116bd565b50819350505050919050565b6000600e544210156117645760009050611842565b600e5442101580156117775750600f5442105b156117e057601260008373ffffffffffffffffffffffffffffffffffffffff1673ffffffffffffffffffffffffffffffffffffffff16815260200190815260200160002060009054906101000a900460ff166117d65760009050611842565b6009549050611842565b601260008373ffffffffffffffffffffffffffffffffffffffff1673ffffffffffffffffffffffffffffffffffffffff16815260200190815260200160002060009054906101000a900460ff161561183c576009549050611842565b600a5490505b919050565b6000600660009054906101000a900473ffffffffffffffffffffffffffffffffffffffff16905090565b606060018054611880906133fd565b80601f01602080910402602001604051908101604052809291908181526020018280546118ac906133fd565b80156118f95780601f106118ce576101008083540402835291602001916118f9565b820191906000526020600020905b8154815290600101906020018083116118dc57829003601f168201915b5050505050905090565b600a5481565b61191b611914611cea565b83836121a1565b5050565b600e5481565b611930848484610ba9565b61194461193b611cea565b85858585612310565b50505050565b6060600073ffffffffffffffffffffffffffffffffffffffff1661196d83612164565b73ffffffffffffffffffffffffffffffffffffffff16036119c3576040517f08c379a00000000000000000000000000000000000000000000000000000000081526004016119ba90613d4b565b60405180910390fd5b60086119ce836124c1565b6040516020016119df929190613ec2565b6040516020818303038152906040529050919050565b60606011805480602002602001604051908101604052809291908181526020018280548015611a7957602002820191906000526020600020905b8160009054906101000a900473ffffffffffffffffffffffffffffffffffffffff1673ffffffffffffffffffffffffffffffffffffffff1681526020019060010190808311611a2f575b5050505050905090565b600d6020528060005260406000206000915090505481565b600c5481565b6000600560008473ffffffffffffffffffffffffffffffffffffffff1673ffffffffffffffffffffffffffffffffffffffff16815260200190815260200160002060008373ffffffffffffffffffffffffffffffffffffffff1673ffffffffffffffffffffffffffffffffffffffff16815260200190815260200160002060009054906101000a900460ff16905092915050565b611b3d611d04565b600073ffffffffffffffffffffffffffffffffffffffff168173ffffffffffffffffffffffffffffffffffffffff1603611baf5760006040517f1e4fbdf7000000000000000000000000000000000000000000000000000000008152600401611ba69190612c7b565b60405180910390fd5b611bb88161209e565b50565b60007f01ffc9a7000000000000000000000000000000000000000000000000000000007bffffffffffffffffffffffffffffffffffffffffffffffffffffffff1916827bffffffffffffffffffffffffffffffffffffffffffffffffffffffff1916149050919050565b600080611c3183612164565b9050600073ffffffffffffffffffffffffffffffffffffffff168173ffffffffffffffffffffffffffffffffffffffff1603611ca457826040517f7e273289000000000000000000000000000000000000000000000000000000008152600401611c9b9190612a45565b60405180910390fd5b80915050919050565b60006004600083815260200190815260200160002060009054906101000a900473ffffffffffffffffffffffffffffffffffffffff169050919050565b600033905090565b611cff838383600161258f565b505050565b611d0c611cea565b73ffffffffffffffffffffffffffffffffffffffff16611d2a611847565b73ffffffffffffffffffffffffffffffffffffffff1614611d8957611d4d611cea565b6040517f118cdaa7000000000000000000000000000000000000000000000000000000008152600401611d809190612c7b565b60405180910390fd5b565b600080611d9784612164565b9050600073ffffffffffffffffffffffffffffffffffffffff168373ffffffffffffffffffffffffffffffffffffffff1614611dd957611dd8818486612754565b5b600073ffffffffffffffffffffffffffffffffffffffff168173ffffffffffffffffffffffffffffffffffffffff1614611e6a57611e1b60008560008061258f565b6001600360008373ffffffffffffffffffffffffffffffffffffffff1673ffffffffffffffffffffffffffffffffffffffff168152602001908152602001600020600082825403925050819055505b600073ffffffffffffffffffffffffffffffffffffffff168573ffffffffffffffffffffffffffffffffffffffff1614611eed576001600360008773ffffffffffffffffffffffffffffffffffffffff1673ffffffffffffffffffffffffffffffffffffffff168152602001908152602001600020600082825401925050819055505b846002600086815260200190815260200160002060006101000a81548173ffffffffffffffffffffffffffffffffffffffff021916908373ffffffffffffffffffffffffffffffffffffffff160217905550838573ffffffffffffffffffffffffffffffffffffffff168273ffffffffffffffffffffffffffffffffffffffff167fddf252ad1be2c89b69c2b068fc378daa952ba7f163c4a11628f55a4df523b3ef60405160405180910390a4809150509392505050565b600073ffffffffffffffffffffffffffffffffffffffff168273ffffffffffffffffffffffffffffffffffffffff16036120175760006040517f64a0ae9200000000000000000000000000000000000000000000000000000000815260040161200e9190612c7b565b60405180910390fd5b600061202583836000611d8b565b9050600073ffffffffffffffffffffffffffffffffffffffff168173ffffffffffffffffffffffffffffffffffffffff16146120995760006040517f73c6ac6e0000000000000000000000000000000000000000000000000000000081526004016120909190612c7b565b60405180910390fd5b505050565b6000600660009054906101000a900473ffffffffffffffffffffffffffffffffffffffff16905081600660006101000a81548173ffffffffffffffffffffffffffffffffffffffff021916908373ffffffffffffffffffffffffffffffffffffffff1602179055508173ffffffffffffffffffffffffffffffffffffffff168173ffffffffffffffffffffffffffffffffffffffff167f8be0079c531659141344cd1fd0a4f28419497f9722a3daafe3b4186f6b6457e060405160405180910390a35050565b60006002600083815260200190815260200160002060009054906101000a900473ffffffffffffffffffffffffffffffffffffffff169050919050565b600073ffffffffffffffffffffffffffffffffffffffff168273ffffffffffffffffffffffffffffffffffffffff160361221257816040517f5b08ba180000000000000000000000000000000000000000000000000000000081526004016122099190612c7b565b60405180910390fd5b80600560008573ffffffffffffffffffffffffffffffffffffffff1673ffffffffffffffffffffffffffffffffffffffff16815260200190815260200160002060008473ffffffffffffffffffffffffffffffffffffffff1673ffffffffffffffffffffffffffffffffffffffff16815260200190815260200160002060006101000a81548160ff0219169083151502179055508173ffffffffffffffffffffffffffffffffffffffff168373ffffffffffffffffffffffffffffffffffffffff167f17307eab39ab6107e8899845ad3d59bd9653f200f220920489ca2b5937696c31836040516123039190612b14565b60405180910390a3505050565b60008373ffffffffffffffffffffffffffffffffffffffff163b11156124ba578273ffffffffffffffffffffffffffffffffffffffff1663150b7a02868685856040518563ffffffff1660e01b815260040161236f9493929190613f51565b6020604051808303816000875af19250505080156123ab57506040513d601f19601f820116820180604052508101906123a89190613fb2565b60015b61242f573d80600081146123db576040519150601f19603f3d011682016040523d82523d6000602084013e6123e0565b606091505b50600081510361242757836040517f64a0ae9200000000000000000000000000000000000000000000000000000000815260040161241e9190612c7b565b60405180910390fd5b805181602001fd5b63150b7a0260e01b7bffffffffffffffffffffffffffffffffffffffffffffffffffffffff1916817bffffffffffffffffffffffffffffffffffffffffffffffffffffffff1916146124b857836040517f64a0ae920000000000000000000000000000000000000000000000000000000081526004016124af9190612c7b565b60405180910390fd5b505b5050505050565b6060600060016124d084612818565b01905060008167ffffffffffffffff8111156124ef576124ee612db3565b5b6040519080825280601f01601f1916602001820160405280156125215781602001600182028036833780820191505090505b509050600082602001820190505b600115612584578080600190039150507f3031323334353637383961626364656600000000000000000000000000000000600a86061a8153600a858161257857612577613fdf565b5b0494506000850361252f575b819350505050919050565b80806125c85750600073ffffffffffffffffffffffffffffffffffffffff168273ffffffffffffffffffffffffffffffffffffffff1614155b156126fc5760006125d884611c25565b9050600073ffffffffffffffffffffffffffffffffffffffff168373ffffffffffffffffffffffffffffffffffffffff161415801561264357508273ffffffffffffffffffffffffffffffffffffffff168173ffffffffffffffffffffffffffffffffffffffff1614155b801561265657506126548184611aa1565b155b1561269857826040517fa9fbf51f00000000000000000000000000000000000000000000000000000000815260040161268f9190612c7b565b60405180910390fd5b81156126fa57838573ffffffffffffffffffffffffffffffffffffffff168273ffffffffffffffffffffffffffffffffffffffff167f8c5be1e5ebec7d5bd14f71427d1e84f3dd0314c0f7b2291e5b200ac8c7c3b92560405160405180910390a45b505b836004600085815260200190815260200160002060006101000a81548173ffffffffffffffffffffffffffffffffffffffff021916908373ffffffffffffffffffffffffffffffffffffffff16021790555050505050565b61275f83838361296b565b61281357600073ffffffffffffffffffffffffffffffffffffffff168373ffffffffffffffffffffffffffffffffffffffff16036127d457806040517f7e2732890000000000000000000000000000000000000000000000000000000081526004016127cb9190612a45565b60405180910390fd5b81816040517f177e802f00000000000000000000000000000000000000000000000000000000815260040161280a92919061400e565b60405180910390fd5b505050565b600080600090507a184f03e93ff9f4daa797ed6e38ed64bf6a1f0100000000000000008310612876577a184f03e93ff9f4daa797ed6e38ed64bf6a1f010000000000000000838161286c5761286b613fdf565b5b0492506040810190505b6d04ee2d6d415b85acef810000000083106128b3576d04ee2d6d415b85acef810000000083816128a9576128a8613fdf565b5b0492506020810190505b662386f26fc1000083106128e257662386f26fc1000083816128d8576128d7613fdf565b5b0492506010810190505b6305f5e100831061290b576305f5e100838161290157612900613fdf565b5b0492506008810190505b612710831061293057612710838161292657612925613fdf565b5b0492506004810190505b60648310612953576064838161294957612948613fdf565b5b0492506002810190505b600a8310612962576001810190505b80915050919050565b60008073ffffffffffffffffffffffffffffffffffffffff168373ffffffffffffffffffffffffffffffffffffffff1614158015612a2357508273ffffffffffffffffffffffffffffffffffffffff168473ffffffffffffffffffffffffffffffffffffffff1614806129e457506129e38484611aa1565b5b80612a2257508273ffffffffffffffffffffffffffffffffffffffff16612a0a83611cad565b73ffffffffffffffffffffffffffffffffffffffff16145b5b90509392505050565b6000819050919050565b612a3f81612a2c565b82525050565b6000602082019050612a5a6000830184612a36565b92915050565b6000604051905090565b600080fd5b600080fd5b60007fffffffff0000000000000000000000000000000000000000000000000000000082169050919050565b612aa981612a74565b8114612ab457600080fd5b50565b600081359050612ac681612aa0565b92915050565b600060208284031215612ae257612ae1612a6a565b5b6000612af084828501612ab7565b91505092915050565b60008115159050919050565b612b0e81612af9565b82525050565b6000602082019050612b296000830184612b05565b92915050565b600081519050919050565b600082825260208201905092915050565b60005b83811015612b69578082015181840152602081019050612b4e565b60008484015250505050565b6000601f19601f8301169050919050565b6000612b9182612b2f565b612b9b8185612b3a565b9350612bab818560208601612b4b565b612bb481612b75565b840191505092915050565b60006020820190508181036000830152612bd98184612b86565b905092915050565b612bea81612a2c565b8114612bf557600080fd5b50565b600081359050612c0781612be1565b92915050565b600060208284031215612c2357612c22612a6a565b5b6000612c3184828501612bf8565b91505092915050565b600073ffffffffffffffffffffffffffffffffffffffff82169050919050565b6000612c6582612c3a565b9050919050565b612c7581612c5a565b82525050565b6000602082019050612c906000830184612c6c565b92915050565b612c9f81612c5a565b8114612caa57600080fd5b50565b600081359050612cbc81612c96565b92915050565b60008060408385031215612cd957612cd8612a6a565b5b6000612ce785828601612cad565b9250506020612cf885828601612bf8565b9150509250929050565b612d0b81612af9565b8114612d1657600080fd5b50565b600081359050612d2881612d02565b92915050565b600060208284031215612d4457612d43612a6a565b5b6000612d5284828501612d19565b91505092915050565b600080600060608486031215612d7457612d73612a6a565b5b6000612d8286828701612cad565b9350506020612d9386828701612cad565b9250506040612da486828701612bf8565b9150509250925092565b600080fd5b7f4e487b7100000000000000000000000000000000000000000000000000000000600052604160045260246000fd5b612deb82612b75565b810181811067ffffffffffffffff82111715612e0a57612e09612db3565b5b80604052505050565b6000612e1d612a60565b9050612e298282612de2565b919050565b600067ffffffffffffffff821115612e4957612e48612db3565b5b602082029050602081019050919050565b600080fd5b6000612e72612e6d84612e2e565b612e13565b90508083825260208201905060208402830185811115612e9557612e94612e5a565b5b835b81811015612ebe5780612eaa8882612cad565b845260208401935050602081019050612e97565b5050509392505050565b600082601f830112612edd57612edc612dae565b5b8135612eed848260208601612e5f565b91505092915050565b600060208284031215612f0c57612f0b612a6a565b5b600082013567ffffffffffffffff811115612f2a57612f29612a6f565b5b612f3684828501612ec8565b91505092915050565b600060208284031215612f5557612f54612a6a565b5b6000612f6384828501612cad565b91505092915050565b600080fd5b600067ffffffffffffffff821115612f8c57612f8b612db3565b5b612f9582612b75565b9050602081019050919050565b82818337600083830152505050565b6000612fc4612fbf84612f71565b612e13565b905082815260208101848484011115612fe057612fdf612f6c565b5b612feb848285612fa2565b509392505050565b600082601f83011261300857613007612dae565b5b8135613018848260208601612fb1565b91505092915050565b60006020828403121561303757613036612a6a565b5b600082013567ffffffffffffffff81111561305557613054612a6f565b5b61306184828501612ff3565b91505092915050565b600081519050919050565b600082825260208201905092915050565b6000819050602082019050919050565b61309f81612a2c565b82525050565b60006130b18383613096565b60208301905092915050565b6000602082019050919050565b60006130d58261306a565b6130df8185613075565b93506130ea83613086565b8060005b8381101561311b57815161310288826130a5565b975061310d836130bd565b9250506001810190506130ee565b5085935050505092915050565b6000602082019050818103600083015261314281846130ca565b905092915050565b6000806040838503121561316157613160612a6a565b5b600061316f85828601612cad565b925050602061318085828601612d19565b9150509250929050565b600067ffffffffffffffff8211156131a5576131a4612db3565b5b6131ae82612b75565b9050602081019050919050565b60006131ce6131c98461318a565b612e13565b9050828152602081018484840111156131ea576131e9612f6c565b5b6131f5848285612fa2565b509392505050565b600082601f83011261321257613211612dae565b5b81356132228482602086016131bb565b91505092915050565b6000806000806080858703121561324557613244612a6a565b5b600061325387828801612cad565b945050602061326487828801612cad565b935050604061327587828801612bf8565b925050606085013567ffffffffffffffff81111561329657613295612a6f565b5b6132a2878288016131fd565b91505092959194509250565b600081519050919050565b600082825260208201905092915050565b6000819050602082019050919050565b6132e381612c5a565b82525050565b60006132f583836132da565b60208301905092915050565b6000602082019050919050565b6000613319826132ae565b61332381856132b9565b935061332e836132ca565b8060005b8381101561335f57815161334688826132e9565b975061335183613301565b925050600181019050613332565b5085935050505092915050565b60006020820190508181036000830152613386818461330e565b905092915050565b600080604083850312156133a5576133a4612a6a565b5b60006133b385828601612cad565b92505060206133c485828601612cad565b9150509250929050565b7f4e487b7100000000000000000000000000000000000000000000000000000000600052602260045260246000fd5b6000600282049050600182168061341557607f821691505b602082108103613428576134276133ce565b5b50919050565b60006060820190506134436000830186612c6c565b6134506020830185612a36565b61345d6040830184612c6c565b949350505050565b7f50726573616c652073746172742074696d65206d75737420626520696e20746860008201527f6520667574757265000000000000000000000000000000000000000000000000602082015250565b60006134c1602883612b3a565b91506134cc82613465565b604082019050919050565b600060208201905081810360008301526134f0816134b4565b9050919050565b7f50726573616c652073746172742074696d65206d757374206265206265666f7260008201527f65207075626c69632073616c652073746172742074696d650000000000000000602082015250565b6000613553603883612b3a565b915061355e826134f7565b604082019050919050565b6000602082019050818103600083015261358281613546565b9050919050565b7f4e487b7100000000000000000000000000000000000000000000000000000000600052603260045260246000fd5b7f4e487b7100000000000000000000000000000000000000000000000000000000600052601160045260246000fd5b60006135f282612a2c565b91507fffffffffffffffffffffffffffffffffffffffffffffffffffffffffffffffff8203613624576136236135b8565b5b600182019050919050565b7f4d696e74696e672069732063757272656e746c79207061757365640000000000600082015250565b6000613665601b83612b3a565b91506136708261362f565b602082019050919050565b6000602082019050818103600083015261369481613658565b9050919050565b7f4d696e74696e6720686173206e6f742073746172746564207965740000000000600082015250565b60006136d1601b83612b3a565b91506136dc8261369b565b602082019050919050565b60006020820190508181036000830152613700816136c4565b9050919050565b7f596f7520617265206e6f742077686974656c697374656420666f72207468652060008201527f70726573616c6500000000000000000000000000000000000000000000000000602082015250565b6000613763602783612b3a565b915061376e82613707565b604082019050919050565b6000602082019050818103600083015261379281613756565b9050919050565b7f4e6f7420656e6f756768204554482073656e7420666f72206d696e74696e6700600082015250565b60006137cf601f83612b3a565b91506137da82613799565b602082019050919050565b600060208201905081810360008301526137fe816137c2565b9050919050565b7f596f752068617665207265616368656420746865206d6178696d756d206d696e60008201527f74206c696d697400000000000000000000000000000000000000000000000000602082015250565b6000613861602783612b3a565b915061386c82613805565b604082019050919050565b6000602082019050818103600083015261389081613854565b9050919050565b7f416c6c204e4654732068617665206265656e206d696e74656400000000000000600082015250565b60006138cd601983612b3a565b91506138d882613897565b602082019050919050565b600060208201905081810360008301526138fc816138c0565b9050919050565b600061390e82612a2c565b915061391983612a2c565b9250828203905081811115613931576139306135b8565b5b92915050565b60008190508160005260206000209050919050565b60006020601f8301049050919050565b600082821b905092915050565b6000600883026139997fffffffffffffffffffffffffffffffffffffffffffffffffffffffffffffffff8261395c565b6139a3868361395c565b95508019841693508086168417925050509392505050565b6000819050919050565b60006139e06139db6139d684612a2c565b6139bb565b612a2c565b9050919050565b6000819050919050565b6139fa836139c5565b613a0e613a06826139e7565b848454613969565b825550505050565b600090565b613a23613a16565b613a2e8184846139f1565b505050565b5b81811015613a5257613a47600082613a1b565b600181019050613a34565b5050565b601f821115613a9757613a6881613937565b613a718461394c565b81016020851015613a80578190505b613a94613a8c8561394c565b830182613a33565b50505b505050565b600082821c905092915050565b6000613aba60001984600802613a9c565b1980831691505092915050565b6000613ad38383613aa9565b9150826002028217905092915050565b613aec82612b2f565b67ffffffffffffffff811115613b0557613b04612db3565b5b613b0f82546133fd565b613b1a828285613a56565b600060209050601f831160018114613b4d5760008415613b3b578287015190505b613b458582613ac7565b865550613bad565b601f198416613b5b86613937565b60005b82811015613b8357848901518255600182019150602085019450602081019050613b5e565b86831015613ba05784890151613b9c601f891682613aa9565b8355505b6001600288020188555050505b505050505050565b7f5075626c69632073616c652073746172742074696d65206d757374206265206960008201527f6e20746865206675747572650000000000000000000000000000000000000000602082015250565b6000613c11602c83612b3a565b9150613c1c82613bb5565b604082019050919050565b60006020820190508181036000830152613c4081613c04565b9050919050565b7f5075626c69632073616c652073746172742074696d65206d757374206265206160008201527f667465722070726573616c652073746172742074696d65000000000000000000602082015250565b6000613ca3603783612b3a565b9150613cae82613c47565b604082019050919050565b60006020820190508181036000830152613cd281613c96565b9050919050565b7f4552433732314d657461646174613a2055524920717565727920666f72206e6f60008201527f6e6578697374656e7420746f6b656e0000000000000000000000000000000000602082015250565b6000613d35602f83612b3a565b9150613d4082613cd9565b604082019050919050565b60006020820190508181036000830152613d6481613d28565b9050919050565b600081905092915050565b60008154613d83816133fd565b613d8d8186613d6b565b94506001821660008114613da85760018114613dbd57613df0565b60ff1983168652811515820286019350613df0565b613dc685613937565b60005b83811015613de857815481890152600182019150602081019050613dc9565b838801955050505b50505092915050565b7f2f00000000000000000000000000000000000000000000000000000000000000600082015250565b6000613e2f600183613d6b565b9150613e3a82613df9565b600182019050919050565b6000613e5082612b2f565b613e5a8185613d6b565b9350613e6a818560208601612b4b565b80840191505092915050565b7f2e6a736f6e000000000000000000000000000000000000000000000000000000600082015250565b6000613eac600583613d6b565b9150613eb782613e76565b600582019050919050565b6000613ece8285613d76565b9150613ed982613e22565b9150613ee58284613e45565b9150613ef082613e9f565b91508190509392505050565b600081519050919050565b600082825260208201905092915050565b6000613f2382613efc565b613f2d8185613f07565b9350613f3d818560208601612b4b565b613f4681612b75565b840191505092915050565b6000608082019050613f666000830187612c6c565b613f736020830186612c6c565b613f806040830185612a36565b8181036060830152613f928184613f18565b905095945050505050565b600081519050613fac81612aa0565b92915050565b600060208284031215613fc857613fc7612a6a565b5b6000613fd684828501613f9d565b91505092915050565b7f4e487b7100000000000000000000000000000000000000000000000000000000600052601260045260246000fd5b60006040820190506140236000830185612c6c565b6140306020830184612a36565b939250505056fea2646970667358221220c03dca9daaea39915ad1abf5a0bff2984cf33a0066e4750f9df0b2f895f678ba64736f6c63430008140033",
  "linkReferences": {},
  "deployedLinkReferences": {}
}