{
  "_format": "hh-sol-artifact-1",
  "contractName": "NFTStaking",
  "sourceName": "contracts/stake.sol",
  "abi": [
    {
      "inputs": [
        {
          "internalType": "address",
          "name": "_nftContract",
          "type": "address"
        },
        {
          "internalType": "address",
          "name": "_rewardToken",
          "type": "address"
        },
        {
          "internalType": "uint256",
          "name": "_rewardRate",
          "type": "uint256"
        },
        {
          "internalType": "uint256",
          "name": "_minimumStakingTime",
          "type": "uint256"
        }
      ],
      "stateMutability": "nonpayable",
      "type": "constructor"
    },
    {
      "inputs": [
        {
          "internalType": "address",
          "name": "owner",
          "type": "address"
        }
      ],
      "name": "OwnableInvalidOwner",
      "type": "error"
    },
    {
      "inputs": [
        {
          "internalType": "address",
          "name": "account",
          "type": "address"
        }
      ],
      "name": "OwnableUnauthorizedAccount",
      "type": "error"
    },
    {
      "inputs": [],
      "name": "ReentrancyGuardReentrantCall",
      "type": "error"
    },
    {
      "anonymous": false,
      "inputs": [
        {
          "indexed": false,
          "internalType": "uint256",
          "name": "newMinimumStakingTime",
          "type": "uint256"
        }
      ],
      "name": "MinimumStakingTimeUpdated",
      "type": "event"
    },
    {
      "anonymous": false,
      "inputs": [
        {
          "indexed": true,
          "internalType": "address",
          "name": "user",
          "type": "address"
        },
        {
          "indexed": false,
          "internalType": "uint256",
          "name": "tokenId",
          "type": "uint256"
        }
      ],
      "name": "NFTStaked",
      "type": "event"
    },
    {
      "anonymous": false,
      "inputs": [
        {
          "indexed": true,
          "internalType": "address",
          "name": "user",
          "type": "address"
        },
        {
          "indexed": false,
          "internalType": "uint256",
          "name": "tokenId",
          "type": "uint256"
        }
      ],
      "name": "NFTUnstaked",
      "type": "event"
    },
    {
      "anonymous": false,
      "inputs": [
        {
          "indexed": true,
          "internalType": "address",
          "name": "previousOwner",
          "type": "address"
        },
        {
          "indexed": true,
          "internalType": "address",
          "name": "newOwner",
          "type": "address"
        }
      ],
      "name": "OwnershipTransferred",
      "type": "event"
    },
    {
      "anonymous": false,
      "inputs": [
        {
          "indexed": true,
          "internalType": "address",
          "name": "user",
          "type": "address"
        },
        {
          "indexed": false,
          "internalType": "uint256",
          "name": "amount",
          "type": "uint256"
        }
      ],
      "name": "RewardClaimed",
      "type": "event"
    },
    {
      "anonymous": false,
      "inputs": [
        {
          "indexed": false,
          "internalType": "uint256",
          "name": "newRewardRate",
          "type": "uint256"
        }
      ],
      "name": "RewardRateUpdated",
      "type": "event"
    },
    {
      "inputs": [
        {
          "internalType": "address",
          "name": "_user",
          "type": "address"
        },
        {
          "internalType": "uint256",
          "name": "_tokenId",
          "type": "uint256"
        }
      ],
      "name": "calculateReward",
      "outputs": [
        {
          "internalType": "uint256",
          "name": "",
          "type": "uint256"
        }
      ],
      "stateMutability": "view",
      "type": "function"
    },
    {
      "inputs": [
        {
          "internalType": "address",
          "name": "_user",
          "type": "address"
        }
      ],
      "name": "claimRewards",
      "outputs": [],
      "stateMutability": "nonpayable",
      "type": "function"
    },
    {
      "inputs": [
        {
          "internalType": "address",
          "name": "_user",
          "type": "address"
        }
      ],
      "name": "getClaimableRewards",
      "outputs": [
        {
          "internalType": "uint256",
          "name": "",
          "type": "uint256"
        }
      ],
      "stateMutability": "view",
      "type": "function"
    },
    {
      "inputs": [
        {
          "internalType": "address",
          "name": "_user",
          "type": "address"
        }
      ],
      "name": "getStakedNFTs",
      "outputs": [
        {
          "internalType": "uint256[]",
          "name": "",
          "type": "uint256[]"
        }
      ],
      "stateMutability": "view",
      "type": "function"
    },
    {
      "inputs": [],
      "name": "minimumStakingTime",
      "outputs": [
        {
          "internalType": "uint256",
          "name": "",
          "type": "uint256"
        }
      ],
      "stateMutability": "view",
      "type": "function"
    },
    {
      "inputs": [],
      "name": "nftContract",
      "outputs": [
        {
          "internalType": "contract IERC721",
          "name": "",
          "type": "address"
        }
      ],
      "stateMutability": "view",
      "type": "function"
    },
    {
      "inputs": [],
      "name": "owner",
      "outputs": [
        {
          "internalType": "address",
          "name": "",
          "type": "address"
        }
      ],
      "stateMutability": "view",
      "type": "function"
    },
    {
      "inputs": [],
      "name": "renounceOwnership",
      "outputs": [],
      "stateMutability": "nonpayable",
      "type": "function"
    },
    {
      "inputs": [],
      "name": "rewardRate",
      "outputs": [
        {
          "internalType": "uint256",
          "name": "",
          "type": "uint256"
        }
      ],
      "stateMutability": "view",
      "type": "function"
    },
    {
      "inputs": [],
      "name": "rewardToken",
      "outputs": [
        {
          "internalType": "contract MyToken",
          "name": "",
          "type": "address"
        }
      ],
      "stateMutability": "view",
      "type": "function"
    },
    {
      "inputs": [
        {
          "internalType": "uint256",
          "name": "_newMinimumStakingTime",
          "type": "uint256"
        }
      ],
      "name": "setMinimumStakingTime",
      "outputs": [],
      "stateMutability": "nonpayable",
      "type": "function"
    },
    {
      "inputs": [
        {
          "internalType": "uint256",
          "name": "_newRewardRate",
          "type": "uint256"
        }
      ],
      "name": "setRewardRate",
      "outputs": [],
      "stateMutability": "nonpayable",
      "type": "function"
    },
    {
      "inputs": [
        {
          "internalType": "uint256",
          "name": "_tokenId",
          "type": "uint256"
        }
      ],
      "name": "stake",
      "outputs": [],
      "stateMutability": "nonpayable",
      "type": "function"
    },
    {
      "inputs": [
        {
          "internalType": "address",
          "name": "",
          "type": "address"
        },
        {
          "internalType": "uint256",
          "name": "",
          "type": "uint256"
        }
      ],
      "name": "stakeInfo",
      "outputs": [
        {
          "internalType": "uint256",
          "name": "startTime",
          "type": "uint256"
        },
        {
          "internalType": "uint256",
          "name": "endTime",
          "type": "uint256"
        }
      ],
      "stateMutability": "view",
      "type": "function"
    },
    {
      "inputs": [
        {
          "internalType": "address",
          "name": "",
          "type": "address"
        },
        {
          "internalType": "uint256",
          "name": "",
          "type": "uint256"
        }
      ],
      "name": "stakeInfoStatus",
      "outputs": [
        {
          "internalType": "bool",
          "name": "",
          "type": "bool"
        }
      ],
      "stateMutability": "view",
      "type": "function"
    },
    {
      "inputs": [
        {
          "internalType": "address",
          "name": "newOwner",
          "type": "address"
        }
      ],
      "name": "transferOwnership",
      "outputs": [],
      "stateMutability": "nonpayable",
      "type": "function"
    },
    {
      "inputs": [
        {
          "internalType": "uint256",
          "name": "_tokenId",
          "type": "uint256"
        }
      ],
      "name": "unstake",
      "outputs": [],
      "stateMutability": "nonpayable",
      "type": "function"
    }
  ],
  "bytecode": "0x60806040523480156200001157600080fd5b50604051620026a4380380620026a48339818101604052810190620000379190620002cc565b336001600081905550600073ffffffffffffffffffffffffffffffffffffffff168173ffffffffffffffffffffffffffffffffffffffff1603620000b55760006040517f1e4fbdf7000000000000000000000000000000000000000000000000000000008152600401620000ac91906200034f565b60405180910390fd5b620000c6816200016160201b60201c565b5083600260006101000a81548173ffffffffffffffffffffffffffffffffffffffff021916908373ffffffffffffffffffffffffffffffffffffffff16021790555082600360006101000a81548173ffffffffffffffffffffffffffffffffffffffff021916908373ffffffffffffffffffffffffffffffffffffffff1602179055508160048190555080600581905550505050506200036c565b6000600160009054906101000a900473ffffffffffffffffffffffffffffffffffffffff16905081600160006101000a81548173ffffffffffffffffffffffffffffffffffffffff021916908373ffffffffffffffffffffffffffffffffffffffff1602179055508173ffffffffffffffffffffffffffffffffffffffff168173ffffffffffffffffffffffffffffffffffffffff167f8be0079c531659141344cd1fd0a4f28419497f9722a3daafe3b4186f6b6457e060405160405180910390a35050565b600080fd5b600073ffffffffffffffffffffffffffffffffffffffff82169050919050565b600062000259826200022c565b9050919050565b6200026b816200024c565b81146200027757600080fd5b50565b6000815190506200028b8162000260565b92915050565b6000819050919050565b620002a68162000291565b8114620002b257600080fd5b50565b600081519050620002c6816200029b565b92915050565b60008060008060808587031215620002e957620002e862000227565b5b6000620002f9878288016200027a565b94505060206200030c878288016200027a565b93505060406200031f87828801620002b5565b92505060606200033287828801620002b5565b91505092959194509250565b62000349816200024c565b82525050565b60006020820190506200036660008301846200033e565b92915050565b612328806200037c6000396000f3fe608060405234801561001057600080fd5b506004361061010b5760003560e01c80639e447fc6116100a2578063d56d229d11610071578063d56d229d146102a5578063d8497017146102c3578063ef5cfb8c146102f3578063f2fde38b1461030f578063f7c618c11461032b5761010b565b80639e447fc614610233578063a694fc3a1461024f578063a75c49db1461026b578063c5ab62f3146102875761010b565b80636f70d212116100de5780636f70d212146101bd578063715018a6146101ed5780637b0a47ee146101f75780638da5cb5b146102155761010b565b80631852e8d9146101105780631c43bd7d146101405780632e17de7814610171578063308e401e1461018d575b600080fd5b61012a60048036038101906101259190611a31565b610349565b6040516101379190611a80565b60405180910390f35b61015a60048036038101906101559190611a31565b610432565b604051610168929190611a9b565b60405180910390f35b61018b60048036038101906101869190611ac4565b610463565b005b6101a760048036038101906101a29190611af1565b610741565b6040516101b49190611a80565b60405180910390f35b6101d760048036038101906101d29190611af1565b61094c565b6040516101e49190611bdc565b60405180910390f35b6101f5610b86565b005b6101ff610b9a565b60405161020c9190611a80565b60405180910390f35b61021d610ba0565b60405161022a9190611c0d565b60405180910390f35b61024d60048036038101906102489190611ac4565b610bca565b005b61026960048036038101906102649190611ac4565b610c56565b005b61028560048036038101906102809190611ac4565b61110c565b005b61028f611155565b60405161029c9190611a80565b60405180910390f35b6102ad61115b565b6040516102ba9190611c87565b60405180910390f35b6102dd60048036038101906102d89190611a31565b611181565b6040516102ea9190611cbd565b60405180910390f35b61030d60048036038101906103089190611af1565b6111b0565b005b61032960048036038101906103249190611af1565b611603565b005b610333611689565b6040516103409190611cf9565b60405180910390f35b600080600660008573ffffffffffffffffffffffffffffffffffffffff1673ffffffffffffffffffffffffffffffffffffffff168152602001908152602001600020600084815260200190815260200160002060405180604001604052908160008201548152602001600182015481525050905060008160000151036103d357600091505061042c565b6000808260200151146103ea5781602001516103ec565b425b905060008260000151826104009190611d43565b9050600554811015610418576000935050505061042c565b600454816104269190611d77565b93505050505b92915050565b6006602052816000526040600020602052806000526040600020600091509150508060000154908060010154905082565b61046b6116af565b6104bc81600760003373ffffffffffffffffffffffffffffffffffffffff1673ffffffffffffffffffffffffffffffffffffffff1681526020019081526020016000206116f590919063ffffffff16565b6104fb576040517f08c379a00000000000000000000000000000000000000000000000000000000081526004016104f290611e16565b60405180910390fd5b600554600660003373ffffffffffffffffffffffffffffffffffffffff1673ffffffffffffffffffffffffffffffffffffffff1681526020019081526020016000206000838152602001908152602001600020600001544261055d9190611d43565b101561059e576040517f08c379a000000000000000000000000000000000000000000000000000000000815260040161059590611e82565b60405180910390fd5b42600660003373ffffffffffffffffffffffffffffffffffffffff1673ffffffffffffffffffffffffffffffffffffffff16815260200190815260200160002060008381526020019081526020016000206001018190555060001515600860003373ffffffffffffffffffffffffffffffffffffffff1673ffffffffffffffffffffffffffffffffffffffff168152602001908152602001600020600083815260200190815260200160002060009054906101000a90505050600260009054906101000a900473ffffffffffffffffffffffffffffffffffffffff1673ffffffffffffffffffffffffffffffffffffffff166323b872dd3033846040518463ffffffff1660e01b81526004016106b693929190611ea2565b600060405180830381600087803b1580156106d057600080fd5b505af11580156106e4573d6000803e3d6000fd5b505050503373ffffffffffffffffffffffffffffffffffffffff167f963148346e3c93bb3eb4b4c296e2e13321ff22bf1118c91686cb1bfe4adcd9188260405161072e9190611a80565b60405180910390a261073e61170f565b50565b60008061078b600760008573ffffffffffffffffffffffffffffffffffffffff1673ffffffffffffffffffffffffffffffffffffffff168152602001908152602001600020611719565b905060008151036107a0576000915050610947565b6000805b82518110156109405760008382815181106107c2576107c1611ed9565b5b602002602001015190506000600660008873ffffffffffffffffffffffffffffffffffffffff1673ffffffffffffffffffffffffffffffffffffffff16815260200190815260200160002060008381526020019081526020016000206000015490506000600860008973ffffffffffffffffffffffffffffffffffffffff1673ffffffffffffffffffffffffffffffffffffffff168152602001908152602001600020600084815260200190815260200160002060009054906101000a900460ff1615610891574290506108f7565b600660008973ffffffffffffffffffffffffffffffffffffffff1673ffffffffffffffffffffffffffffffffffffffff16815260200190815260200160002060008481526020019081526020016000206001015490508181116108f65750505061092d565b5b600082826109059190611d43565b90506000600454826109179190611d77565b905080876109259190611f08565b965050505050505b808061093890611f3c565b9150506107a4565b5080925050505b919050565b60606000610997600760008573ffffffffffffffffffffffffffffffffffffffff1673ffffffffffffffffffffffffffffffffffffffff168152602001908152602001600020611719565b90506000805b8251811015610a4557600860008673ffffffffffffffffffffffffffffffffffffffff1673ffffffffffffffffffffffffffffffffffffffff16815260200190815260200160002060008483815181106109fa576109f9611ed9565b5b6020026020010151815260200190815260200160002060009054906101000a900460ff1615610a32578180610a2e90611f3c565b9250505b8080610a3d90611f3c565b91505061099d565b5060008167ffffffffffffffff811115610a6257610a61611f84565b5b604051908082528060200260200182016040528015610a905781602001602082028036833780820191505090505b5090506000805b8451811015610b7957600860008873ffffffffffffffffffffffffffffffffffffffff1673ffffffffffffffffffffffffffffffffffffffff1681526020019081526020016000206000868381518110610af457610af3611ed9565b5b6020026020010151815260200190815260200160002060009054906101000a900460ff1615610b6657848181518110610b3057610b2f611ed9565b5b6020026020010151838381518110610b4b57610b4a611ed9565b5b6020026020010181815250508180610b6290611f3c565b9250505b8080610b7190611f3c565b915050610a97565b5081945050505050919050565b610b8e61173a565b610b9860006117c1565b565b60045481565b6000600160009054906101000a900473ffffffffffffffffffffffffffffffffffffffff16905090565b610bd261173a565b60008111610c15576040517f08c379a0000000000000000000000000000000000000000000000000000000008152600401610c0c90612025565b60405180910390fd5b806004819055507f41d466ebd06fb97e7786086ac8b69b7eb7da798592036251291d34e9791cde0181604051610c4b9190611a80565b60405180910390a150565b610c5e6116af565b3373ffffffffffffffffffffffffffffffffffffffff16600260009054906101000a900473ffffffffffffffffffffffffffffffffffffffff1673ffffffffffffffffffffffffffffffffffffffff16636352211e836040518263ffffffff1660e01b8152600401610cd09190611a80565b602060405180830381865afa158015610ced573d6000803e3d6000fd5b505050506040513d601f19601f82011682018060405250810190610d11919061205a565b73ffffffffffffffffffffffffffffffffffffffff1614610d67576040517f08c379a0000000000000000000000000000000000000000000000000000000008152600401610d5e906120f9565b60405180910390fd5b610daf600760003373ffffffffffffffffffffffffffffffffffffffff1673ffffffffffffffffffffffffffffffffffffffff168152602001908152602001600020826116f5565b15610f165760001515600860003373ffffffffffffffffffffffffffffffffffffffff1673ffffffffffffffffffffffffffffffffffffffff168152602001908152602001600020600083815260200190815260200160002060009054906101000a900460ff16151514610e58576040517f08c379a0000000000000000000000000000000000000000000000000000000008152600401610e4f90612165565b60405180910390fd5b42600660003373ffffffffffffffffffffffffffffffffffffffff1673ffffffffffffffffffffffffffffffffffffffff16815260200190815260200160002060008381526020019081526020016000206000018190555060011515600860003373ffffffffffffffffffffffffffffffffffffffff1673ffffffffffffffffffffffffffffffffffffffff168152602001908152602001600020600083815260200190815260200160002060009054906101000a90505050611022565b610f6781600760003373ffffffffffffffffffffffffffffffffffffffff1673ffffffffffffffffffffffffffffffffffffffff16815260200190815260200160002061188790919063ffffffff16565b5042600660003373ffffffffffffffffffffffffffffffffffffffff1673ffffffffffffffffffffffffffffffffffffffff16815260200190815260200160002060008381526020019081526020016000206000018190555060011515600860003373ffffffffffffffffffffffffffffffffffffffff1673ffffffffffffffffffffffffffffffffffffffff168152602001908152602001600020600083815260200190815260200160002060009054906101000a905050505b600260009054906101000a900473ffffffffffffffffffffffffffffffffffffffff1673ffffffffffffffffffffffffffffffffffffffff166323b872dd3330846040518463ffffffff1660e01b815260040161108193929190611ea2565b600060405180830381600087803b15801561109b57600080fd5b505af11580156110af573d6000803e3d6000fd5b505050503373ffffffffffffffffffffffffffffffffffffffff167f0cda5cf38f6592672c7b4a22ff3d50874d1913629bd5ffedc27b7b40503d60fd826040516110f99190611a80565b60405180910390a261110961170f565b50565b61111461173a565b806005819055507f219b1a1128f71352ccef534731892b8ef44fe07b4ddf56c11fd7052fa3c73a6b8160405161114a9190611a80565b60405180910390a150565b60055481565b600260009054906101000a900473ffffffffffffffffffffffffffffffffffffffff1681565b60086020528160005260406000206020528060005260406000206000915091509054906101000a900460ff1681565b6111b86116af565b600080611202600760008573ffffffffffffffffffffffffffffffffffffffff1673ffffffffffffffffffffffffffffffffffffffff168152602001908152602001600020611719565b90506000815111611248576040517f08c379a000000000000000000000000000000000000000000000000000000000815260040161123f906121d1565b60405180910390fd5b60005b81518110156114d557600082828151811061126957611268611ed9565b5b602002602001015190506000600660008773ffffffffffffffffffffffffffffffffffffffff1673ffffffffffffffffffffffffffffffffffffffff16815260200190815260200160002060008381526020019081526020016000206000015490506000600860008873ffffffffffffffffffffffffffffffffffffffff1673ffffffffffffffffffffffffffffffffffffffff168152602001908152602001600020600084815260200190815260200160002060009054906101000a900460ff1615611338574290506113d1565b600660008873ffffffffffffffffffffffffffffffffffffffff1673ffffffffffffffffffffffffffffffffffffffff16815260200190815260200160002060008481526020019081526020016000206001015490508181116113d0576040517f08c379a00000000000000000000000000000000000000000000000000000000081526004016113c79061223d565b60405180910390fd5b5b600082826113df9190611d43565b90506000600454826113f19190611d77565b905080886113ff9190611f08565b9750600860008a73ffffffffffffffffffffffffffffffffffffffff1673ffffffffffffffffffffffffffffffffffffffff168152602001908152602001600020600086815260200190815260200160002060009054906101000a900460ff16156114bd5742600660008b73ffffffffffffffffffffffffffffffffffffffff1673ffffffffffffffffffffffffffffffffffffffff1681526020019081526020016000206000878152602001908152602001600020600001819055505b505050505080806114cd90611f3c565b91505061124b565b5060008211611519576040517f08c379a0000000000000000000000000000000000000000000000000000000008152600401611510906122a9565b60405180910390fd5b600360009054906101000a900473ffffffffffffffffffffffffffffffffffffffff1673ffffffffffffffffffffffffffffffffffffffff166340c10f1984846040518363ffffffff1660e01b81526004016115769291906122c9565b600060405180830381600087803b15801561159057600080fd5b505af11580156115a4573d6000803e3d6000fd5b505050508273ffffffffffffffffffffffffffffffffffffffff167f106f923f993c2149d49b4255ff723acafa1f2d94393f561d3eda32ae348f7241836040516115ee9190611a80565b60405180910390a2505061160061170f565b50565b61160b61173a565b600073ffffffffffffffffffffffffffffffffffffffff168173ffffffffffffffffffffffffffffffffffffffff160361167d5760006040517f1e4fbdf70000000000000000000000000000000000000000000000000000000081526004016116749190611c0d565b60405180910390fd5b611686816117c1565b50565b600360009054906101000a900473ffffffffffffffffffffffffffffffffffffffff1681565b6002600054036116eb576040517f3ee5aeb500000000000000000000000000000000000000000000000000000000815260040160405180910390fd5b6002600081905550565b6000611707836000018360001b6118a1565b905092915050565b6001600081905550565b60606000611729836000016118c4565b905060608190508092505050919050565b611742611920565b73ffffffffffffffffffffffffffffffffffffffff16611760610ba0565b73ffffffffffffffffffffffffffffffffffffffff16146117bf57611783611920565b6040517f118cdaa70000000000000000000000000000000000000000000000000000000081526004016117b69190611c0d565b60405180910390fd5b565b6000600160009054906101000a900473ffffffffffffffffffffffffffffffffffffffff16905081600160006101000a81548173ffffffffffffffffffffffffffffffffffffffff021916908373ffffffffffffffffffffffffffffffffffffffff1602179055508173ffffffffffffffffffffffffffffffffffffffff168173ffffffffffffffffffffffffffffffffffffffff167f8be0079c531659141344cd1fd0a4f28419497f9722a3daafe3b4186f6b6457e060405160405180910390a35050565b6000611899836000018360001b611928565b905092915050565b600080836001016000848152602001908152602001600020541415905092915050565b60608160000180548060200260200160405190810160405280929190818152602001828054801561191457602002820191906000526020600020905b815481526020019060010190808311611900575b50505050509050919050565b600033905090565b600061193483836118a1565b61198d578260000182908060018154018082558091505060019003906000526020600020016000909190919091505582600001805490508360010160008481526020019081526020016000208190555060019050611992565b600090505b92915050565b600080fd5b600073ffffffffffffffffffffffffffffffffffffffff82169050919050565b60006119c88261199d565b9050919050565b6119d8816119bd565b81146119e357600080fd5b50565b6000813590506119f5816119cf565b92915050565b6000819050919050565b611a0e816119fb565b8114611a1957600080fd5b50565b600081359050611a2b81611a05565b92915050565b60008060408385031215611a4857611a47611998565b5b6000611a56858286016119e6565b9250506020611a6785828601611a1c565b9150509250929050565b611a7a816119fb565b82525050565b6000602082019050611a956000830184611a71565b92915050565b6000604082019050611ab06000830185611a71565b611abd6020830184611a71565b9392505050565b600060208284031215611ada57611ad9611998565b5b6000611ae884828501611a1c565b91505092915050565b600060208284031215611b0757611b06611998565b5b6000611b15848285016119e6565b91505092915050565b600081519050919050565b600082825260208201905092915050565b6000819050602082019050919050565b611b53816119fb565b82525050565b6000611b658383611b4a565b60208301905092915050565b6000602082019050919050565b6000611b8982611b1e565b611b938185611b29565b9350611b9e83611b3a565b8060005b83811015611bcf578151611bb68882611b59565b9750611bc183611b71565b925050600181019050611ba2565b5085935050505092915050565b60006020820190508181036000830152611bf68184611b7e565b905092915050565b611c07816119bd565b82525050565b6000602082019050611c226000830184611bfe565b92915050565b6000819050919050565b6000611c4d611c48611c438461199d565b611c28565b61199d565b9050919050565b6000611c5f82611c32565b9050919050565b6000611c7182611c54565b9050919050565b611c8181611c66565b82525050565b6000602082019050611c9c6000830184611c78565b92915050565b60008115159050919050565b611cb781611ca2565b82525050565b6000602082019050611cd26000830184611cae565b92915050565b6000611ce382611c54565b9050919050565b611cf381611cd8565b82525050565b6000602082019050611d0e6000830184611cea565b92915050565b7f4e487b7100000000000000000000000000000000000000000000000000000000600052601160045260246000fd5b6000611d4e826119fb565b9150611d59836119fb565b9250828203905081811115611d7157611d70611d14565b5b92915050565b6000611d82826119fb565b9150611d8d836119fb565b9250828202611d9b816119fb565b91508282048414831517611db257611db1611d14565b5b5092915050565b600082825260208201905092915050565b7f4e4654206973206e6f74207374616b656420627920796f750000000000000000600082015250565b6000611e00601883611db9565b9150611e0b82611dca565b602082019050919050565b60006020820190508181036000830152611e2f81611df3565b9050919050565b7f4d696e696d756d207374616b696e672074696d65206e6f742072656163686564600082015250565b6000611e6c602083611db9565b9150611e7782611e36565b602082019050919050565b60006020820190508181036000830152611e9b81611e5f565b9050919050565b6000606082019050611eb76000830186611bfe565b611ec46020830185611bfe565b611ed16040830184611a71565b949350505050565b7f4e487b7100000000000000000000000000000000000000000000000000000000600052603260045260246000fd5b6000611f13826119fb565b9150611f1e836119fb565b9250828201905080821115611f3657611f35611d14565b5b92915050565b6000611f47826119fb565b91507fffffffffffffffffffffffffffffffffffffffffffffffffffffffffffffffff8203611f7957611f78611d14565b5b600182019050919050565b7f4e487b7100000000000000000000000000000000000000000000000000000000600052604160045260246000fd5b7f5265776172642072617465206d7573742062652067726561746572207468616e60008201527f207a65726f000000000000000000000000000000000000000000000000000000602082015250565b600061200f602583611db9565b915061201a82611fb3565b604082019050919050565b6000602082019050818103600083015261203e81612002565b9050919050565b600081519050612054816119cf565b92915050565b6000602082840312156120705761206f611998565b5b600061207e84828501612045565b91505092915050565b7f596f7520617265206e6f7420746865206f776e6572206f662074686973204e4660008201527f5400000000000000000000000000000000000000000000000000000000000000602082015250565b60006120e3602183611db9565b91506120ee82612087565b604082019050919050565b60006020820190508181036000830152612112816120d6565b9050919050565b7f4e465420697320616c7265616479207374616b65640000000000000000000000600082015250565b600061214f601583611db9565b915061215a82612119565b602082019050919050565b6000602082019050818103600083015261217e81612142565b9050919050565b7f4e6f207374616b6564204e46547320666f756e64000000000000000000000000600082015250565b60006121bb601483611db9565b91506121c682612185565b602082019050919050565b600060208201905081810360008301526121ea816121ae565b9050919050565b7f4e6f20756e636c61696d65642072657761726473000000000000000000000000600082015250565b6000612227601483611db9565b9150612232826121f1565b602082019050919050565b600060208201905081810360008301526122568161221a565b9050919050565b7f4e6f207265776172647320746f20636c61696d00000000000000000000000000600082015250565b6000612293601383611db9565b915061229e8261225d565b602082019050919050565b600060208201905081810360008301526122c281612286565b9050919050565b60006040820190506122de6000830185611bfe565b6122eb6020830184611a71565b939250505056fea26469706673582212208ea66c74f9b7afdc3e955680399f8917da169d511695adfe83c13fd8e5319ecd64736f6c63430008140033",
  "linkReferences": {},
  "deployedLinkReferences": {}
}