{
  "_format": "hh-sol-artifact-1",
  "contractName": "NFTStaking",
  "sourceName": "contracts/stake.sol",
  "abi": [
    {
      "inputs": [
        {
          "internalType": "address",
          "name": "_nftContract",
          "type": "address"
        },
        {
          "internalType": "address",
          "name": "_rewardToken",
          "type": "address"
        },
        {
          "internalType": "uint256",
          "name": "_rewardRate",
          "type": "uint256"
        },
        {
          "internalType": "uint256",
          "name": "_minimumStakingTime",
          "type": "uint256"
        }
      ],
      "stateMutability": "nonpayable",
      "type": "constructor"
    },
    {
      "inputs": [
        {
          "internalType": "address",
          "name": "owner",
          "type": "address"
        }
      ],
      "name": "OwnableInvalidOwner",
      "type": "error"
    },
    {
      "inputs": [
        {
          "internalType": "address",
          "name": "account",
          "type": "address"
        }
      ],
      "name": "OwnableUnauthorizedAccount",
      "type": "error"
    },
    {
      "inputs": [],
      "name": "ReentrancyGuardReentrantCall",
      "type": "error"
    },
    {
      "anonymous": false,
      "inputs": [
        {
          "indexed": false,
          "internalType": "uint256",
          "name": "newMinimumStakingTime",
          "type": "uint256"
        }
      ],
      "name": "MinimumStakingTimeUpdated",
      "type": "event"
    },
    {
      "anonymous": false,
      "inputs": [
        {
          "indexed": true,
          "internalType": "address",
          "name": "user",
          "type": "address"
        },
        {
          "indexed": false,
          "internalType": "uint256",
          "name": "tokenId",
          "type": "uint256"
        }
      ],
      "name": "NFTStaked",
      "type": "event"
    },
    {
      "anonymous": false,
      "inputs": [
        {
          "indexed": true,
          "internalType": "address",
          "name": "user",
          "type": "address"
        },
        {
          "indexed": false,
          "internalType": "uint256",
          "name": "tokenId",
          "type": "uint256"
        }
      ],
      "name": "NFTUnstaked",
      "type": "event"
    },
    {
      "anonymous": false,
      "inputs": [
        {
          "indexed": true,
          "internalType": "address",
          "name": "previousOwner",
          "type": "address"
        },
        {
          "indexed": true,
          "internalType": "address",
          "name": "newOwner",
          "type": "address"
        }
      ],
      "name": "OwnershipTransferred",
      "type": "event"
    },
    {
      "anonymous": false,
      "inputs": [
        {
          "indexed": true,
          "internalType": "address",
          "name": "user",
          "type": "address"
        },
        {
          "indexed": false,
          "internalType": "uint256",
          "name": "amount",
          "type": "uint256"
        }
      ],
      "name": "RewardClaimed",
      "type": "event"
    },
    {
      "anonymous": false,
      "inputs": [
        {
          "indexed": false,
          "internalType": "uint256",
          "name": "newRewardRate",
          "type": "uint256"
        }
      ],
      "name": "RewardRateUpdated",
      "type": "event"
    },
    {
      "inputs": [
        {
          "internalType": "address",
          "name": "_user",
          "type": "address"
        },
        {
          "internalType": "uint256",
          "name": "_tokenId",
          "type": "uint256"
        }
      ],
      "name": "calculateReward",
      "outputs": [
        {
          "internalType": "uint256",
          "name": "",
          "type": "uint256"
        }
      ],
      "stateMutability": "view",
      "type": "function"
    },
    {
      "inputs": [
        {
          "internalType": "uint256[]",
          "name": "_tokenIds",
          "type": "uint256[]"
        }
      ],
      "name": "claimRewards",
      "outputs": [],
      "stateMutability": "nonpayable",
      "type": "function"
    },
    {
      "inputs": [
        {
          "internalType": "address",
          "name": "_user",
          "type": "address"
        }
      ],
      "name": "getStakedNFTs",
      "outputs": [
        {
          "internalType": "uint256[]",
          "name": "",
          "type": "uint256[]"
        }
      ],
      "stateMutability": "view",
      "type": "function"
    },
    {
      "inputs": [
        {
          "internalType": "address",
          "name": "_user",
          "type": "address"
        }
      ],
      "name": "getStakedNFTsCount",
      "outputs": [
        {
          "internalType": "uint256",
          "name": "",
          "type": "uint256"
        }
      ],
      "stateMutability": "view",
      "type": "function"
    },
    {
      "inputs": [
        {
          "internalType": "address",
          "name": "_user",
          "type": "address"
        }
      ],
      "name": "getTotalRewards",
      "outputs": [
        {
          "internalType": "uint256",
          "name": "",
          "type": "uint256"
        }
      ],
      "stateMutability": "view",
      "type": "function"
    },
    {
      "inputs": [],
      "name": "minimumStakingTime",
      "outputs": [
        {
          "internalType": "uint256",
          "name": "",
          "type": "uint256"
        }
      ],
      "stateMutability": "view",
      "type": "function"
    },
    {
      "inputs": [],
      "name": "nftContract",
      "outputs": [
        {
          "internalType": "contract IERC721",
          "name": "",
          "type": "address"
        }
      ],
      "stateMutability": "view",
      "type": "function"
    },
    {
      "inputs": [],
      "name": "owner",
      "outputs": [
        {
          "internalType": "address",
          "name": "",
          "type": "address"
        }
      ],
      "stateMutability": "view",
      "type": "function"
    },
    {
      "inputs": [],
      "name": "renounceOwnership",
      "outputs": [],
      "stateMutability": "nonpayable",
      "type": "function"
    },
    {
      "inputs": [],
      "name": "rewardRate",
      "outputs": [
        {
          "internalType": "uint256",
          "name": "",
          "type": "uint256"
        }
      ],
      "stateMutability": "view",
      "type": "function"
    },
    {
      "inputs": [],
      "name": "rewardToken",
      "outputs": [
        {
          "internalType": "contract MyToken",
          "name": "",
          "type": "address"
        }
      ],
      "stateMutability": "view",
      "type": "function"
    },
    {
      "inputs": [
        {
          "internalType": "uint256",
          "name": "_newMinimumStakingTime",
          "type": "uint256"
        }
      ],
      "name": "setMinimumStakingTime",
      "outputs": [],
      "stateMutability": "nonpayable",
      "type": "function"
    },
    {
      "inputs": [
        {
          "internalType": "uint256",
          "name": "_newRewardRate",
          "type": "uint256"
        }
      ],
      "name": "setRewardRate",
      "outputs": [],
      "stateMutability": "nonpayable",
      "type": "function"
    },
    {
      "inputs": [
        {
          "internalType": "uint256",
          "name": "_tokenId",
          "type": "uint256"
        }
      ],
      "name": "stake",
      "outputs": [],
      "stateMutability": "nonpayable",
      "type": "function"
    },
    {
      "inputs": [
        {
          "internalType": "address",
          "name": "",
          "type": "address"
        },
        {
          "internalType": "uint256",
          "name": "",
          "type": "uint256"
        }
      ],
      "name": "stakeInfo",
      "outputs": [
        {
          "internalType": "uint256",
          "name": "startTime",
          "type": "uint256"
        },
        {
          "internalType": "uint256",
          "name": "endTime",
          "type": "uint256"
        }
      ],
      "stateMutability": "view",
      "type": "function"
    },
    {
      "inputs": [
        {
          "internalType": "address",
          "name": "newOwner",
          "type": "address"
        }
      ],
      "name": "transferOwnership",
      "outputs": [],
      "stateMutability": "nonpayable",
      "type": "function"
    },
    {
      "inputs": [
        {
          "internalType": "uint256",
          "name": "_tokenId",
          "type": "uint256"
        }
      ],
      "name": "unstake",
      "outputs": [],
      "stateMutability": "nonpayable",
      "type": "function"
    }
  ],
  "bytecode": "0x60806040523480156200001157600080fd5b50604051620022dd380380620022dd8339818101604052810190620000379190620002cc565b336001600081905550600073ffffffffffffffffffffffffffffffffffffffff168173ffffffffffffffffffffffffffffffffffffffff1603620000b55760006040517f1e4fbdf7000000000000000000000000000000000000000000000000000000008152600401620000ac91906200034f565b60405180910390fd5b620000c6816200016160201b60201c565b5083600260006101000a81548173ffffffffffffffffffffffffffffffffffffffff021916908373ffffffffffffffffffffffffffffffffffffffff16021790555082600360006101000a81548173ffffffffffffffffffffffffffffffffffffffff021916908373ffffffffffffffffffffffffffffffffffffffff1602179055508160048190555080600581905550505050506200036c565b6000600160009054906101000a900473ffffffffffffffffffffffffffffffffffffffff16905081600160006101000a81548173ffffffffffffffffffffffffffffffffffffffff021916908373ffffffffffffffffffffffffffffffffffffffff1602179055508173ffffffffffffffffffffffffffffffffffffffff168173ffffffffffffffffffffffffffffffffffffffff167f8be0079c531659141344cd1fd0a4f28419497f9722a3daafe3b4186f6b6457e060405160405180910390a35050565b600080fd5b600073ffffffffffffffffffffffffffffffffffffffff82169050919050565b600062000259826200022c565b9050919050565b6200026b816200024c565b81146200027757600080fd5b50565b6000815190506200028b8162000260565b92915050565b6000819050919050565b620002a68162000291565b8114620002b257600080fd5b50565b600081519050620002c6816200029b565b92915050565b60008060008060808587031215620002e957620002e862000227565b5b6000620002f9878288016200027a565b94505060206200030c878288016200027a565b93505060406200031f87828801620002b5565b92505060606200033287828801620002b5565b91505092959194509250565b62000349816200024c565b82525050565b60006020820190506200036660008301846200033e565b92915050565b611f61806200037c6000396000f3fe608060405234801561001057600080fd5b506004361061010b5760003560e01c80637b0a47ee116100a2578063a75c49db11610071578063a75c49db146102b7578063c5ab62f3146102d3578063d56d229d146102f1578063f2fde38b1461030f578063f7c618c11461032b5761010b565b80637b0a47ee146102435780638da5cb5b146102615780639e447fc61461027f578063a694fc3a1461029b5761010b565b80632e17de78116100de5780632e17de78146101d15780635eac6239146101ed5780636f70d21214610209578063715018a6146102395761010b565b80630a6f826d146101105780631852e8d9146101405780631c43bd7d146101705780632bcf161c146101a1575b600080fd5b61012a60048036038101906101259190611592565b610349565b60405161013791906115d8565b60405180910390f35b61015a6004803603810190610155919061161f565b610399565b60405161016791906115d8565b60405180910390f35b61018a6004803603810190610185919061161f565b610482565b60405161019892919061165f565b60405180910390f35b6101bb60048036038101906101b69190611592565b6104b3565b6040516101c891906115d8565b60405180910390f35b6101eb60048036038101906101e69190611688565b61055b565b005b6102076004803603810190610202919061171a565b61082a565b005b610223600480360381019061021e9190611592565b610b7f565b6040516102309190611825565b60405180910390f35b610241610bcf565b005b61024b610be3565b60405161025891906115d8565b60405180910390f35b610269610be9565b6040516102769190611856565b60405180910390f35b61029960048036038101906102949190611688565b610c13565b005b6102b560048036038101906102b09190611688565b610c9f565b005b6102d160048036038101906102cc9190611688565b610fcc565b005b6102db611015565b6040516102e891906115d8565b60405180910390f35b6102f961101b565b60405161030691906118d0565b60405180910390f35b61032960048036038101906103249190611592565b611041565b005b6103336110c7565b604051610340919061190c565b60405180910390f35b6000610392600760008473ffffffffffffffffffffffffffffffffffffffff1673ffffffffffffffffffffffffffffffffffffffff1681526020019081526020016000206110ed565b9050919050565b600080600660008573ffffffffffffffffffffffffffffffffffffffff1673ffffffffffffffffffffffffffffffffffffffff1681526020019081526020016000206000848152602001908152602001600020604051806040016040529081600082015481526020016001820154815250509050600081600001510361042357600091505061047c565b60008082602001511461043a57816020015161043c565b425b905060008260000151826104509190611956565b9050600554811015610468576000935050505061047c565b60045481610476919061198a565b93505050505b92915050565b6006602052816000526040600020602052806000526040600020600091509150508060000154908060010154905082565b6000806104fd600760008573ffffffffffffffffffffffffffffffffffffffff1673ffffffffffffffffffffffffffffffffffffffff168152602001908152602001600020611102565b90506000805b82518110156105505761053085848381518110610523576105226119cc565b5b6020026020010151610399565b8261053b91906119fb565b9150808061054890611a2f565b915050610503565b508092505050919050565b610563611123565b6105b481600760003373ffffffffffffffffffffffffffffffffffffffff1673ffffffffffffffffffffffffffffffffffffffff16815260200190815260200160002061116990919063ffffffff16565b6105f3576040517f08c379a00000000000000000000000000000000000000000000000000000000081526004016105ea90611ad4565b60405180910390fd5b600554600660003373ffffffffffffffffffffffffffffffffffffffff1673ffffffffffffffffffffffffffffffffffffffff168152602001908152602001600020600083815260200190815260200160002060000154426106559190611956565b1015610696576040517f08c379a000000000000000000000000000000000000000000000000000000000815260040161068d90611b40565b60405180910390fd5b42600660003373ffffffffffffffffffffffffffffffffffffffff1673ffffffffffffffffffffffffffffffffffffffff16815260200190815260200160002060008381526020019081526020016000206001018190555061073f81600760003373ffffffffffffffffffffffffffffffffffffffff1673ffffffffffffffffffffffffffffffffffffffff16815260200190815260200160002061118390919063ffffffff16565b50600260009054906101000a900473ffffffffffffffffffffffffffffffffffffffff1673ffffffffffffffffffffffffffffffffffffffff166323b872dd3033846040518463ffffffff1660e01b815260040161079f93929190611b60565b600060405180830381600087803b1580156107b957600080fd5b505af11580156107cd573d6000803e3d6000fd5b505050503373ffffffffffffffffffffffffffffffffffffffff167f963148346e3c93bb3eb4b4c296e2e13321ff22bf1118c91686cb1bfe4adcd9188260405161081791906115d8565b60405180910390a261082761119d565b50565b610832611123565b6000805b83839050811015610a51576000848483818110610856576108556119cc565b5b9050602002013590506108b081600760003373ffffffffffffffffffffffffffffffffffffffff1673ffffffffffffffffffffffffffffffffffffffff16815260200190815260200160002061116990919063ffffffff16565b6108ef576040517f08c379a00000000000000000000000000000000000000000000000000000000081526004016108e690611ad4565b60405180910390fd5b6000600660003373ffffffffffffffffffffffffffffffffffffffff1673ffffffffffffffffffffffffffffffffffffffff16815260200190815260200160002060008381526020019081526020016000206000015411610985576040517f08c379a000000000000000000000000000000000000000000000000000000000815260040161097c90611be3565b60405180910390fd5b60006109913383610399565b9050600081116109d6576040517f08c379a00000000000000000000000000000000000000000000000000000000081526004016109cd90611c4f565b60405180910390fd5b80846109e291906119fb565b935042600660003373ffffffffffffffffffffffffffffffffffffffff1673ffffffffffffffffffffffffffffffffffffffff16815260200190815260200160002060008481526020019081526020016000206000018190555050508080610a4990611a2f565b915050610836565b5060008111610a95576040517f08c379a0000000000000000000000000000000000000000000000000000000008152600401610a8c90611ce1565b60405180910390fd5b600360009054906101000a900473ffffffffffffffffffffffffffffffffffffffff1673ffffffffffffffffffffffffffffffffffffffff166340c10f1933836040518363ffffffff1660e01b8152600401610af2929190611d01565b600060405180830381600087803b158015610b0c57600080fd5b505af1158015610b20573d6000803e3d6000fd5b505050503373ffffffffffffffffffffffffffffffffffffffff167f106f923f993c2149d49b4255ff723acafa1f2d94393f561d3eda32ae348f724182604051610b6a91906115d8565b60405180910390a250610b7b61119d565b5050565b6060610bc8600760008473ffffffffffffffffffffffffffffffffffffffff1673ffffffffffffffffffffffffffffffffffffffff168152602001908152602001600020611102565b9050919050565b610bd76111a7565b610be1600061122e565b565b60045481565b6000600160009054906101000a900473ffffffffffffffffffffffffffffffffffffffff16905090565b610c1b6111a7565b60008111610c5e576040517f08c379a0000000000000000000000000000000000000000000000000000000008152600401610c5590611d9c565b60405180910390fd5b806004819055507f41d466ebd06fb97e7786086ac8b69b7eb7da798592036251291d34e9791cde0181604051610c9491906115d8565b60405180910390a150565b610ca7611123565b3373ffffffffffffffffffffffffffffffffffffffff16600260009054906101000a900473ffffffffffffffffffffffffffffffffffffffff1673ffffffffffffffffffffffffffffffffffffffff16636352211e836040518263ffffffff1660e01b8152600401610d1991906115d8565b602060405180830381865afa158015610d36573d6000803e3d6000fd5b505050506040513d601f19601f82011682018060405250810190610d5a9190611dd1565b73ffffffffffffffffffffffffffffffffffffffff1614610db0576040517f08c379a0000000000000000000000000000000000000000000000000000000008152600401610da790611e70565b60405180910390fd5b610df8600760003373ffffffffffffffffffffffffffffffffffffffff1673ffffffffffffffffffffffffffffffffffffffff16815260200190815260200160002082611169565b15610e38576040517f08c379a0000000000000000000000000000000000000000000000000000000008152600401610e2f90611edc565b60405180910390fd5b600260009054906101000a900473ffffffffffffffffffffffffffffffffffffffff1673ffffffffffffffffffffffffffffffffffffffff166323b872dd3330846040518463ffffffff1660e01b8152600401610e9793929190611b60565b600060405180830381600087803b158015610eb157600080fd5b505af1158015610ec5573d6000803e3d6000fd5b5050505042600660003373ffffffffffffffffffffffffffffffffffffffff1673ffffffffffffffffffffffffffffffffffffffff168152602001908152602001600020600083815260200190815260200160002060000181905550610f7281600760003373ffffffffffffffffffffffffffffffffffffffff1673ffffffffffffffffffffffffffffffffffffffff1681526020019081526020016000206112f490919063ffffffff16565b503373ffffffffffffffffffffffffffffffffffffffff167f0cda5cf38f6592672c7b4a22ff3d50874d1913629bd5ffedc27b7b40503d60fd82604051610fb991906115d8565b60405180910390a2610fc961119d565b50565b610fd46111a7565b806005819055507f219b1a1128f71352ccef534731892b8ef44fe07b4ddf56c11fd7052fa3c73a6b8160405161100a91906115d8565b60405180910390a150565b60055481565b600260009054906101000a900473ffffffffffffffffffffffffffffffffffffffff1681565b6110496111a7565b600073ffffffffffffffffffffffffffffffffffffffff168173ffffffffffffffffffffffffffffffffffffffff16036110bb5760006040517f1e4fbdf70000000000000000000000000000000000000000000000000000000081526004016110b29190611856565b60405180910390fd5b6110c48161122e565b50565b600360009054906101000a900473ffffffffffffffffffffffffffffffffffffffff1681565b60006110fb8260000161130e565b9050919050565b606060006111128360000161131f565b905060608190508092505050919050565b60026000540361115f576040517f3ee5aeb500000000000000000000000000000000000000000000000000000000815260040160405180910390fd5b6002600081905550565b600061117b836000018360001b61137b565b905092915050565b6000611195836000018360001b61139e565b905092915050565b6001600081905550565b6111af6114b2565b73ffffffffffffffffffffffffffffffffffffffff166111cd610be9565b73ffffffffffffffffffffffffffffffffffffffff161461122c576111f06114b2565b6040517f118cdaa70000000000000000000000000000000000000000000000000000000081526004016112239190611856565b60405180910390fd5b565b6000600160009054906101000a900473ffffffffffffffffffffffffffffffffffffffff16905081600160006101000a81548173ffffffffffffffffffffffffffffffffffffffff021916908373ffffffffffffffffffffffffffffffffffffffff1602179055508173ffffffffffffffffffffffffffffffffffffffff168173ffffffffffffffffffffffffffffffffffffffff167f8be0079c531659141344cd1fd0a4f28419497f9722a3daafe3b4186f6b6457e060405160405180910390a35050565b6000611306836000018360001b6114ba565b905092915050565b600081600001805490509050919050565b60608160000180548060200260200160405190810160405280929190818152602001828054801561136f57602002820191906000526020600020905b81548152602001906001019080831161135b575b50505050509050919050565b600080836001016000848152602001908152602001600020541415905092915050565b600080836001016000848152602001908152602001600020549050600081146114a65760006001826113d09190611956565b90506000600186600001805490506113e89190611956565b9050808214611457576000866000018281548110611409576114086119cc565b5b906000526020600020015490508087600001848154811061142d5761142c6119cc565b5b90600052602060002001819055508387600101600083815260200190815260200160002081905550505b8560000180548061146b5761146a611efc565b5b6001900381819060005260206000200160009055905585600101600086815260200190815260200160002060009055600193505050506114ac565b60009150505b92915050565b600033905090565b60006114c6838361137b565b61151f578260000182908060018154018082558091505060019003906000526020600020016000909190919091505582600001805490508360010160008481526020019081526020016000208190555060019050611524565b600090505b92915050565b600080fd5b600080fd5b600073ffffffffffffffffffffffffffffffffffffffff82169050919050565b600061155f82611534565b9050919050565b61156f81611554565b811461157a57600080fd5b50565b60008135905061158c81611566565b92915050565b6000602082840312156115a8576115a761152a565b5b60006115b68482850161157d565b91505092915050565b6000819050919050565b6115d2816115bf565b82525050565b60006020820190506115ed60008301846115c9565b92915050565b6115fc816115bf565b811461160757600080fd5b50565b600081359050611619816115f3565b92915050565b600080604083850312156116365761163561152a565b5b60006116448582860161157d565b92505060206116558582860161160a565b9150509250929050565b600060408201905061167460008301856115c9565b61168160208301846115c9565b9392505050565b60006020828403121561169e5761169d61152a565b5b60006116ac8482850161160a565b91505092915050565b600080fd5b600080fd5b600080fd5b60008083601f8401126116da576116d96116b5565b5b8235905067ffffffffffffffff8111156116f7576116f66116ba565b5b602083019150836020820283011115611713576117126116bf565b5b9250929050565b600080602083850312156117315761173061152a565b5b600083013567ffffffffffffffff81111561174f5761174e61152f565b5b61175b858286016116c4565b92509250509250929050565b600081519050919050565b600082825260208201905092915050565b6000819050602082019050919050565b61179c816115bf565b82525050565b60006117ae8383611793565b60208301905092915050565b6000602082019050919050565b60006117d282611767565b6117dc8185611772565b93506117e783611783565b8060005b838110156118185781516117ff88826117a2565b975061180a836117ba565b9250506001810190506117eb565b5085935050505092915050565b6000602082019050818103600083015261183f81846117c7565b905092915050565b61185081611554565b82525050565b600060208201905061186b6000830184611847565b92915050565b6000819050919050565b600061189661189161188c84611534565b611871565b611534565b9050919050565b60006118a88261187b565b9050919050565b60006118ba8261189d565b9050919050565b6118ca816118af565b82525050565b60006020820190506118e560008301846118c1565b92915050565b60006118f68261189d565b9050919050565b611906816118eb565b82525050565b600060208201905061192160008301846118fd565b92915050565b7f4e487b7100000000000000000000000000000000000000000000000000000000600052601160045260246000fd5b6000611961826115bf565b915061196c836115bf565b925082820390508181111561198457611983611927565b5b92915050565b6000611995826115bf565b91506119a0836115bf565b92508282026119ae816115bf565b915082820484148315176119c5576119c4611927565b5b5092915050565b7f4e487b7100000000000000000000000000000000000000000000000000000000600052603260045260246000fd5b6000611a06826115bf565b9150611a11836115bf565b9250828201905080821115611a2957611a28611927565b5b92915050565b6000611a3a826115bf565b91507fffffffffffffffffffffffffffffffffffffffffffffffffffffffffffffffff8203611a6c57611a6b611927565b5b600182019050919050565b600082825260208201905092915050565b7f4e4654206973206e6f74207374616b656420627920796f750000000000000000600082015250565b6000611abe601883611a77565b9150611ac982611a88565b602082019050919050565b60006020820190508181036000830152611aed81611ab1565b9050919050565b7f4d696e696d756d207374616b696e672074696d65206e6f742072656163686564600082015250565b6000611b2a602083611a77565b9150611b3582611af4565b602082019050919050565b60006020820190508181036000830152611b5981611b1d565b9050919050565b6000606082019050611b756000830186611847565b611b826020830185611847565b611b8f60408301846115c9565b949350505050565b7f4e4654206973206e6f74207374616b6564000000000000000000000000000000600082015250565b6000611bcd601183611a77565b9150611bd882611b97565b602082019050919050565b60006020820190508181036000830152611bfc81611bc0565b9050919050565b7f4e6f2072657761726420746f20636c61696d20666f722074686973204e465400600082015250565b6000611c39601f83611a77565b9150611c4482611c03565b602082019050919050565b60006020820190508181036000830152611c6881611c2c565b9050919050565b7f4e6f2072657761726420746f20636c61696d20666f7220616e79206f6620746860008201527f65204e4654730000000000000000000000000000000000000000000000000000602082015250565b6000611ccb602683611a77565b9150611cd682611c6f565b604082019050919050565b60006020820190508181036000830152611cfa81611cbe565b9050919050565b6000604082019050611d166000830185611847565b611d2360208301846115c9565b9392505050565b7f5265776172642072617465206d7573742062652067726561746572207468616e60008201527f207a65726f000000000000000000000000000000000000000000000000000000602082015250565b6000611d86602583611a77565b9150611d9182611d2a565b604082019050919050565b60006020820190508181036000830152611db581611d79565b9050919050565b600081519050611dcb81611566565b92915050565b600060208284031215611de757611de661152a565b5b6000611df584828501611dbc565b91505092915050565b7f596f7520617265206e6f7420746865206f776e6572206f662074686973204e4660008201527f5400000000000000000000000000000000000000000000000000000000000000602082015250565b6000611e5a602183611a77565b9150611e6582611dfe565b604082019050919050565b60006020820190508181036000830152611e8981611e4d565b9050919050565b7f4e465420697320616c7265616479207374616b65640000000000000000000000600082015250565b6000611ec6601583611a77565b9150611ed182611e90565b602082019050919050565b60006020820190508181036000830152611ef581611eb9565b9050919050565b7f4e487b7100000000000000000000000000000000000000000000000000000000600052603160045260246000fdfea2646970667358221220cbdffaf9ae320ffcf3766bb00d626ecf5183324b2a9d8c2d2449c26e225b27d264736f6c63430008140033",
  "linkReferences": {},
  "deployedLinkReferences": {}
}