{
  "_format": "hh-sol-artifact-1",
  "contractName": "MyNFT",
  "sourceName": "contracts/nft.sol",
  "abi": [
    {
      "inputs": [
        {
          "internalType": "string",
          "name": "_baseURI",
          "type": "string"
        },
        {
          "internalType": "uint256",
          "name": "_presalePrice",
          "type": "uint256"
        },
        {
          "internalType": "uint256",
          "name": "_publicSalePrice",
          "type": "uint256"
        },
        {
          "internalType": "uint256",
          "name": "_maxMintPerAddress",
          "type": "uint256"
        },
        {
          "internalType": "uint256",
          "name": "_maxSupply",
          "type": "uint256"
        },
        {
          "internalType": "uint256",
          "name": "_presaleStartTime",
          "type": "uint256"
        },
        {
          "internalType": "uint256",
          "name": "_publicSaleStartTime",
          "type": "uint256"
        }
      ],
      "stateMutability": "nonpayable",
      "type": "constructor"
    },
    {
      "inputs": [
        {
          "internalType": "address",
          "name": "sender",
          "type": "address"
        },
        {
          "internalType": "uint256",
          "name": "tokenId",
          "type": "uint256"
        },
        {
          "internalType": "address",
          "name": "owner",
          "type": "address"
        }
      ],
      "name": "ERC721IncorrectOwner",
      "type": "error"
    },
    {
      "inputs": [
        {
          "internalType": "address",
          "name": "operator",
          "type": "address"
        },
        {
          "internalType": "uint256",
          "name": "tokenId",
          "type": "uint256"
        }
      ],
      "name": "ERC721InsufficientApproval",
      "type": "error"
    },
    {
      "inputs": [
        {
          "internalType": "address",
          "name": "approver",
          "type": "address"
        }
      ],
      "name": "ERC721InvalidApprover",
      "type": "error"
    },
    {
      "inputs": [
        {
          "internalType": "address",
          "name": "operator",
          "type": "address"
        }
      ],
      "name": "ERC721InvalidOperator",
      "type": "error"
    },
    {
      "inputs": [
        {
          "internalType": "address",
          "name": "owner",
          "type": "address"
        }
      ],
      "name": "ERC721InvalidOwner",
      "type": "error"
    },
    {
      "inputs": [
        {
          "internalType": "address",
          "name": "receiver",
          "type": "address"
        }
      ],
      "name": "ERC721InvalidReceiver",
      "type": "error"
    },
    {
      "inputs": [
        {
          "internalType": "address",
          "name": "sender",
          "type": "address"
        }
      ],
      "name": "ERC721InvalidSender",
      "type": "error"
    },
    {
      "inputs": [
        {
          "internalType": "uint256",
          "name": "tokenId",
          "type": "uint256"
        }
      ],
      "name": "ERC721NonexistentToken",
      "type": "error"
    },
    {
      "inputs": [
        {
          "internalType": "address",
          "name": "owner",
          "type": "address"
        }
      ],
      "name": "OwnableInvalidOwner",
      "type": "error"
    },
    {
      "inputs": [
        {
          "internalType": "address",
          "name": "account",
          "type": "address"
        }
      ],
      "name": "OwnableUnauthorizedAccount",
      "type": "error"
    },
    {
      "anonymous": false,
      "inputs": [
        {
          "indexed": true,
          "internalType": "address",
          "name": "owner",
          "type": "address"
        },
        {
          "indexed": true,
          "internalType": "address",
          "name": "approved",
          "type": "address"
        },
        {
          "indexed": true,
          "internalType": "uint256",
          "name": "tokenId",
          "type": "uint256"
        }
      ],
      "name": "Approval",
      "type": "event"
    },
    {
      "anonymous": false,
      "inputs": [
        {
          "indexed": true,
          "internalType": "address",
          "name": "owner",
          "type": "address"
        },
        {
          "indexed": true,
          "internalType": "address",
          "name": "operator",
          "type": "address"
        },
        {
          "indexed": false,
          "internalType": "bool",
          "name": "approved",
          "type": "bool"
        }
      ],
      "name": "ApprovalForAll",
      "type": "event"
    },
    {
      "anonymous": false,
      "inputs": [
        {
          "indexed": true,
          "internalType": "address",
          "name": "previousOwner",
          "type": "address"
        },
        {
          "indexed": true,
          "internalType": "address",
          "name": "newOwner",
          "type": "address"
        }
      ],
      "name": "OwnershipTransferred",
      "type": "event"
    },
    {
      "anonymous": false,
      "inputs": [
        {
          "indexed": true,
          "internalType": "address",
          "name": "from",
          "type": "address"
        },
        {
          "indexed": true,
          "internalType": "address",
          "name": "to",
          "type": "address"
        },
        {
          "indexed": true,
          "internalType": "uint256",
          "name": "tokenId",
          "type": "uint256"
        }
      ],
      "name": "Transfer",
      "type": "event"
    },
    {
      "anonymous": false,
      "inputs": [
        {
          "indexed": false,
          "internalType": "address[]",
          "name": "newWhitelist",
          "type": "address[]"
        }
      ],
      "name": "WhitelistUpdated",
      "type": "event"
    },
    {
      "inputs": [
        {
          "internalType": "address",
          "name": "to",
          "type": "address"
        },
        {
          "internalType": "uint256",
          "name": "tokenId",
          "type": "uint256"
        }
      ],
      "name": "approve",
      "outputs": [],
      "stateMutability": "nonpayable",
      "type": "function"
    },
    {
      "inputs": [
        {
          "internalType": "address",
          "name": "owner",
          "type": "address"
        }
      ],
      "name": "balanceOf",
      "outputs": [
        {
          "internalType": "uint256",
          "name": "",
          "type": "uint256"
        }
      ],
      "stateMutability": "view",
      "type": "function"
    },
    {
      "inputs": [],
      "name": "baseURI",
      "outputs": [
        {
          "internalType": "string",
          "name": "",
          "type": "string"
        }
      ],
      "stateMutability": "view",
      "type": "function"
    },
    {
      "inputs": [
        {
          "internalType": "uint256",
          "name": "tokenId",
          "type": "uint256"
        }
      ],
      "name": "getApproved",
      "outputs": [
        {
          "internalType": "address",
          "name": "",
          "type": "address"
        }
      ],
      "stateMutability": "view",
      "type": "function"
    },
    {
      "inputs": [],
      "name": "getWhitelist",
      "outputs": [
        {
          "internalType": "address[]",
          "name": "",
          "type": "address[]"
        }
      ],
      "stateMutability": "view",
      "type": "function"
    },
    {
      "inputs": [
        {
          "internalType": "address",
          "name": "owner",
          "type": "address"
        },
        {
          "internalType": "address",
          "name": "operator",
          "type": "address"
        }
      ],
      "name": "isApprovedForAll",
      "outputs": [
        {
          "internalType": "bool",
          "name": "",
          "type": "bool"
        }
      ],
      "stateMutability": "view",
      "type": "function"
    },
    {
      "inputs": [
        {
          "internalType": "address",
          "name": "",
          "type": "address"
        }
      ],
      "name": "isWhitelisted",
      "outputs": [
        {
          "internalType": "bool",
          "name": "",
          "type": "bool"
        }
      ],
      "stateMutability": "view",
      "type": "function"
    },
    {
      "inputs": [],
      "name": "maxMintPerAddress",
      "outputs": [
        {
          "internalType": "uint256",
          "name": "",
          "type": "uint256"
        }
      ],
      "stateMutability": "view",
      "type": "function"
    },
    {
      "inputs": [],
      "name": "maxSupply",
      "outputs": [
        {
          "internalType": "uint256",
          "name": "",
          "type": "uint256"
        }
      ],
      "stateMutability": "view",
      "type": "function"
    },
    {
      "inputs": [
        {
          "internalType": "address",
          "name": "recipient",
          "type": "address"
        }
      ],
      "name": "mintNFT",
      "outputs": [
        {
          "internalType": "uint256",
          "name": "",
          "type": "uint256"
        }
      ],
      "stateMutability": "payable",
      "type": "function"
    },
    {
      "inputs": [
        {
          "internalType": "address",
          "name": "",
          "type": "address"
        }
      ],
      "name": "mintedPerAddress",
      "outputs": [
        {
          "internalType": "uint256",
          "name": "",
          "type": "uint256"
        }
      ],
      "stateMutability": "view",
      "type": "function"
    },
    {
      "inputs": [],
      "name": "name",
      "outputs": [
        {
          "internalType": "string",
          "name": "",
          "type": "string"
        }
      ],
      "stateMutability": "view",
      "type": "function"
    },
    {
      "inputs": [],
      "name": "owner",
      "outputs": [
        {
          "internalType": "address",
          "name": "",
          "type": "address"
        }
      ],
      "stateMutability": "view",
      "type": "function"
    },
    {
      "inputs": [
        {
          "internalType": "uint256",
          "name": "tokenId",
          "type": "uint256"
        }
      ],
      "name": "ownerOf",
      "outputs": [
        {
          "internalType": "address",
          "name": "",
          "type": "address"
        }
      ],
      "stateMutability": "view",
      "type": "function"
    },
    {
      "inputs": [],
      "name": "paused",
      "outputs": [
        {
          "internalType": "bool",
          "name": "",
          "type": "bool"
        }
      ],
      "stateMutability": "view",
      "type": "function"
    },
    {
      "inputs": [],
      "name": "presalePrice",
      "outputs": [
        {
          "internalType": "uint256",
          "name": "",
          "type": "uint256"
        }
      ],
      "stateMutability": "view",
      "type": "function"
    },
    {
      "inputs": [],
      "name": "presaleStartTime",
      "outputs": [
        {
          "internalType": "uint256",
          "name": "",
          "type": "uint256"
        }
      ],
      "stateMutability": "view",
      "type": "function"
    },
    {
      "inputs": [],
      "name": "publicSalePrice",
      "outputs": [
        {
          "internalType": "uint256",
          "name": "",
          "type": "uint256"
        }
      ],
      "stateMutability": "view",
      "type": "function"
    },
    {
      "inputs": [],
      "name": "publicSaleStartTime",
      "outputs": [
        {
          "internalType": "uint256",
          "name": "",
          "type": "uint256"
        }
      ],
      "stateMutability": "view",
      "type": "function"
    },
    {
      "inputs": [],
      "name": "renounceOwnership",
      "outputs": [],
      "stateMutability": "nonpayable",
      "type": "function"
    },
    {
      "inputs": [
        {
          "internalType": "address",
          "name": "from",
          "type": "address"
        },
        {
          "internalType": "address",
          "name": "to",
          "type": "address"
        },
        {
          "internalType": "uint256",
          "name": "tokenId",
          "type": "uint256"
        }
      ],
      "name": "safeTransferFrom",
      "outputs": [],
      "stateMutability": "nonpayable",
      "type": "function"
    },
    {
      "inputs": [
        {
          "internalType": "address",
          "name": "from",
          "type": "address"
        },
        {
          "internalType": "address",
          "name": "to",
          "type": "address"
        },
        {
          "internalType": "uint256",
          "name": "tokenId",
          "type": "uint256"
        },
        {
          "internalType": "bytes",
          "name": "data",
          "type": "bytes"
        }
      ],
      "name": "safeTransferFrom",
      "outputs": [],
      "stateMutability": "nonpayable",
      "type": "function"
    },
    {
      "inputs": [
        {
          "internalType": "address",
          "name": "operator",
          "type": "address"
        },
        {
          "internalType": "bool",
          "name": "approved",
          "type": "bool"
        }
      ],
      "name": "setApprovalForAll",
      "outputs": [],
      "stateMutability": "nonpayable",
      "type": "function"
    },
    {
      "inputs": [
        {
          "internalType": "string",
          "name": "_newBaseURI",
          "type": "string"
        }
      ],
      "name": "setBaseURI",
      "outputs": [],
      "stateMutability": "nonpayable",
      "type": "function"
    },
    {
      "inputs": [
        {
          "internalType": "uint256",
          "name": "_newMax",
          "type": "uint256"
        }
      ],
      "name": "setMaxMintPerAddress",
      "outputs": [],
      "stateMutability": "nonpayable",
      "type": "function"
    },
    {
      "inputs": [
        {
          "internalType": "bool",
          "name": "_paused",
          "type": "bool"
        }
      ],
      "name": "setPaused",
      "outputs": [],
      "stateMutability": "nonpayable",
      "type": "function"
    },
    {
      "inputs": [
        {
          "internalType": "uint256",
          "name": "_newPrice",
          "type": "uint256"
        }
      ],
      "name": "setPresalePrice",
      "outputs": [],
      "stateMutability": "nonpayable",
      "type": "function"
    },
    {
      "inputs": [
        {
          "internalType": "uint256",
          "name": "_newStartTime",
          "type": "uint256"
        }
      ],
      "name": "setPresaleStartTime",
      "outputs": [],
      "stateMutability": "nonpayable",
      "type": "function"
    },
    {
      "inputs": [
        {
          "internalType": "uint256",
          "name": "_newPrice",
          "type": "uint256"
        }
      ],
      "name": "setPublicSalePrice",
      "outputs": [],
      "stateMutability": "nonpayable",
      "type": "function"
    },
    {
      "inputs": [
        {
          "internalType": "uint256",
          "name": "_newStartTime",
          "type": "uint256"
        }
      ],
      "name": "setPublicSaleStartTime",
      "outputs": [],
      "stateMutability": "nonpayable",
      "type": "function"
    },
    {
      "inputs": [
        {
          "internalType": "bytes4",
          "name": "interfaceId",
          "type": "bytes4"
        }
      ],
      "name": "supportsInterface",
      "outputs": [
        {
          "internalType": "bool",
          "name": "",
          "type": "bool"
        }
      ],
      "stateMutability": "view",
      "type": "function"
    },
    {
      "inputs": [],
      "name": "symbol",
      "outputs": [
        {
          "internalType": "string",
          "name": "",
          "type": "string"
        }
      ],
      "stateMutability": "view",
      "type": "function"
    },
    {
      "inputs": [
        {
          "internalType": "uint256",
          "name": "tokenId",
          "type": "uint256"
        }
      ],
      "name": "tokenURI",
      "outputs": [
        {
          "internalType": "string",
          "name": "",
          "type": "string"
        }
      ],
      "stateMutability": "view",
      "type": "function"
    },
    {
      "inputs": [
        {
          "internalType": "address",
          "name": "from",
          "type": "address"
        },
        {
          "internalType": "address",
          "name": "to",
          "type": "address"
        },
        {
          "internalType": "uint256",
          "name": "tokenId",
          "type": "uint256"
        }
      ],
      "name": "transferFrom",
      "outputs": [],
      "stateMutability": "nonpayable",
      "type": "function"
    },
    {
      "inputs": [
        {
          "internalType": "address",
          "name": "newOwner",
          "type": "address"
        }
      ],
      "name": "transferOwnership",
      "outputs": [],
      "stateMutability": "nonpayable",
      "type": "function"
    },
    {
      "inputs": [
        {
          "internalType": "address[]",
          "name": "_newWhitelist",
          "type": "address[]"
        }
      ],
      "name": "updateWhitelist",
      "outputs": [],
      "stateMutability": "nonpayable",
      "type": "function"
    },
    {
      "inputs": [
        {
          "internalType": "uint256",
          "name": "",
          "type": "uint256"
        }
      ],
      "name": "whitelist",
      "outputs": [
        {
          "internalType": "address",
          "name": "",
          "type": "address"
        }
      ],
      "stateMutability": "view",
      "type": "function"
    },
    {
      "inputs": [],
      "name": "withdraw",
      "outputs": [],
      "stateMutability": "nonpayable",
      "type": "function"
    }
  ],
  "bytecode": "0x608060405260006007553480156200001657600080fd5b506040516200457f3803806200457f83398181016040528101906200003c91906200044e565b336040518060400160405280600581526020017f4d794e46540000000000000000000000000000000000000000000000000000008152506040518060400160405280600481526020017f4d4e4654000000000000000000000000000000000000000000000000000000008152508160009081620000ba919062000761565b508060019081620000cc919062000761565b505050600073ffffffffffffffffffffffffffffffffffffffff168173ffffffffffffffffffffffffffffffffffffffff1603620001445760006040517f1e4fbdf70000000000000000000000000000000000000000000000000000000081526004016200013b91906200088d565b60405180910390fd5b6200015581620001ba60201b60201c565b50866008908162000167919062000761565b508560098190555084600a8190555083600b8190555082600c8190555081600e8190555080600f819055506000601060006101000a81548160ff02191690831515021790555050505050505050620008aa565b6000600660009054906101000a900473ffffffffffffffffffffffffffffffffffffffff16905081600660006101000a81548173ffffffffffffffffffffffffffffffffffffffff021916908373ffffffffffffffffffffffffffffffffffffffff1602179055508173ffffffffffffffffffffffffffffffffffffffff168173ffffffffffffffffffffffffffffffffffffffff167f8be0079c531659141344cd1fd0a4f28419497f9722a3daafe3b4186f6b6457e060405160405180910390a35050565b6000604051905090565b600080fd5b600080fd5b600080fd5b600080fd5b6000601f19601f8301169050919050565b7f4e487b7100000000000000000000000000000000000000000000000000000000600052604160045260246000fd5b620002e9826200029e565b810181811067ffffffffffffffff821117156200030b576200030a620002af565b5b80604052505050565b60006200032062000280565b90506200032e8282620002de565b919050565b600067ffffffffffffffff821115620003515762000350620002af565b5b6200035c826200029e565b9050602081019050919050565b60005b83811015620003895780820151818401526020810190506200036c565b60008484015250505050565b6000620003ac620003a68462000333565b62000314565b905082815260208101848484011115620003cb57620003ca62000299565b5b620003d884828562000369565b509392505050565b600082601f830112620003f857620003f762000294565b5b81516200040a84826020860162000395565b91505092915050565b6000819050919050565b620004288162000413565b81146200043457600080fd5b50565b60008151905062000448816200041d565b92915050565b600080600080600080600060e0888a03121562000470576200046f6200028a565b5b600088015167ffffffffffffffff8111156200049157620004906200028f565b5b6200049f8a828b01620003e0565b9750506020620004b28a828b0162000437565b9650506040620004c58a828b0162000437565b9550506060620004d88a828b0162000437565b9450506080620004eb8a828b0162000437565b93505060a0620004fe8a828b0162000437565b92505060c0620005118a828b0162000437565b91505092959891949750929550565b600081519050919050565b7f4e487b7100000000000000000000000000000000000000000000000000000000600052602260045260246000fd5b600060028204905060018216806200057357607f821691505b6020821081036200058957620005886200052b565b5b50919050565b60008190508160005260206000209050919050565b60006020601f8301049050919050565b600082821b905092915050565b600060088302620005f37fffffffffffffffffffffffffffffffffffffffffffffffffffffffffffffffff82620005b4565b620005ff8683620005b4565b95508019841693508086168417925050509392505050565b6000819050919050565b6000620006426200063c620006368462000413565b62000617565b62000413565b9050919050565b6000819050919050565b6200065e8362000621565b620006766200066d8262000649565b848454620005c1565b825550505050565b600090565b6200068d6200067e565b6200069a81848462000653565b505050565b5b81811015620006c257620006b660008262000683565b600181019050620006a0565b5050565b601f8211156200071157620006db816200058f565b620006e684620005a4565b81016020851015620006f6578190505b6200070e6200070585620005a4565b8301826200069f565b50505b505050565b600082821c905092915050565b6000620007366000198460080262000716565b1980831691505092915050565b600062000751838362000723565b9150826002028217905092915050565b6200076c8262000520565b67ffffffffffffffff811115620007885762000787620002af565b5b6200079482546200055a565b620007a1828285620006c6565b600060209050601f831160018114620007d95760008415620007c4578287015190505b620007d0858262000743565b86555062000840565b601f198416620007e9866200058f565b60005b828110156200081357848901518255600182019150602085019450602081019050620007ec565b868310156200083357848901516200082f601f89168262000723565b8355505b6001600288020188555050505b505050505050565b600073ffffffffffffffffffffffffffffffffffffffff82169050919050565b6000620008758262000848565b9050919050565b620008878162000868565b82525050565b6000602082019050620008a460008301846200087c565b92915050565b613cc580620008ba6000396000f3fe6080604052600436106102245760003560e01c80636bb7b1d9116101235780639b6860c8116100ab578063d01f63f51161006f578063d01f63f5146107f5578063d445b97814610820578063d5abeb011461085d578063e985e9c514610888578063f2fde38b146108c557610224565b80639b6860c814610710578063a22cb4651461073b578063a82524b214610764578063b88d4fde1461078f578063c87b56dd146107b857610224565b8063715018a6116100f2578063715018a61461063d578063791a2519146106545780637ebd1b301461067d5780638da5cb5b146106ba57806395d89b41146106e557610224565b80636bb7b1d9146105815780636c0360eb146105ac5780636d5d40c6146105d757806370a082311461060057610224565b806335377214116101b157806354ba0f271161017557806354ba0f271461049557806355f804b3146104c5578063572849c4146104ee5780635c975abb146105195780636352211e1461054457610224565b806335377214146103c65780633549345e146103ef5780633af32abf146104185780633ccfd60b1461045557806342842e0e1461046c57610224565b8063095ea7b3116101f8578063095ea7b3146102f957806316c38b3c146103225780631e14d44b1461034b57806323b872dd14610374578063296cab551461039d57610224565b80620e7fa81461022957806301ffc9a71461025457806306fdde0314610291578063081812fc146102bc575b600080fd5b34801561023557600080fd5b5061023e6108ee565b60405161024b9190612768565b60405180910390f35b34801561026057600080fd5b5061027b600480360381019061027691906127ef565b6108f4565b6040516102889190612837565b60405180910390f35b34801561029d57600080fd5b506102a66109d6565b6040516102b391906128e2565b60405180910390f35b3480156102c857600080fd5b506102e360048036038101906102de9190612930565b610a68565b6040516102f0919061299e565b60405180910390f35b34801561030557600080fd5b50610320600480360381019061031b91906129e5565b610a84565b005b34801561032e57600080fd5b5061034960048036038101906103449190612a51565b610a9a565b005b34801561035757600080fd5b50610372600480360381019061036d9190612930565b610abf565b005b34801561038057600080fd5b5061039b60048036038101906103969190612a7e565b610ad1565b005b3480156103a957600080fd5b506103c460048036038101906103bf9190612930565b610bd3565b005b3480156103d257600080fd5b506103ed60048036038101906103e89190612c19565b610c6b565b005b3480156103fb57600080fd5b5061041660048036038101906104119190612930565b610e52565b005b34801561042457600080fd5b5061043f600480360381019061043a9190612c62565b610e64565b60405161044c9190612837565b60405180910390f35b34801561046157600080fd5b5061046a610e84565b005b34801561047857600080fd5b50610493600480360381019061048e9190612a7e565b610edc565b005b6104af60048036038101906104aa9190612c62565b610efc565b6040516104bc9190612768565b60405180910390f35b3480156104d157600080fd5b506104ec60048036038101906104e79190612d44565b6112d9565b005b3480156104fa57600080fd5b506105036112f4565b6040516105109190612768565b60405180910390f35b34801561052557600080fd5b5061052e6112fa565b60405161053b9190612837565b60405180910390f35b34801561055057600080fd5b5061056b60048036038101906105669190612930565b61130d565b604051610578919061299e565b60405180910390f35b34801561058d57600080fd5b5061059661131f565b6040516105a39190612768565b60405180910390f35b3480156105b857600080fd5b506105c1611325565b6040516105ce91906128e2565b60405180910390f35b3480156105e357600080fd5b506105fe60048036038101906105f99190612930565b6113b3565b005b34801561060c57600080fd5b5061062760048036038101906106229190612c62565b61144b565b6040516106349190612768565b60405180910390f35b34801561064957600080fd5b50610652611505565b005b34801561066057600080fd5b5061067b60048036038101906106769190612930565b611519565b005b34801561068957600080fd5b506106a4600480360381019061069f9190612930565b61152b565b6040516106b1919061299e565b60405180910390f35b3480156106c657600080fd5b506106cf61156a565b6040516106dc919061299e565b60405180910390f35b3480156106f157600080fd5b506106fa611594565b60405161070791906128e2565b60405180910390f35b34801561071c57600080fd5b50610725611626565b6040516107329190612768565b60405180910390f35b34801561074757600080fd5b50610762600480360381019061075d9190612d8d565b61162c565b005b34801561077057600080fd5b50610779611642565b6040516107869190612768565b60405180910390f35b34801561079b57600080fd5b506107b660048036038101906107b19190612e6e565b611648565b005b3480156107c457600080fd5b506107df60048036038101906107da9190612930565b61166d565b6040516107ec91906128e2565b60405180910390f35b34801561080157600080fd5b5061080a611718565b6040516108179190612faf565b60405180910390f35b34801561082c57600080fd5b5061084760048036038101906108429190612c62565b6117a6565b6040516108549190612768565b60405180910390f35b34801561086957600080fd5b506108726117be565b60405161087f9190612768565b60405180910390f35b34801561089457600080fd5b506108af60048036038101906108aa9190612fd1565b6117c4565b6040516108bc9190612837565b60405180910390f35b3480156108d157600080fd5b506108ec60048036038101906108e79190612c62565b611858565b005b60095481565b60007f80ac58cd000000000000000000000000000000000000000000000000000000007bffffffffffffffffffffffffffffffffffffffffffffffffffffffff1916827bffffffffffffffffffffffffffffffffffffffffffffffffffffffff191614806109bf57507f5b5e139f000000000000000000000000000000000000000000000000000000007bffffffffffffffffffffffffffffffffffffffffffffffffffffffff1916827bffffffffffffffffffffffffffffffffffffffffffffffffffffffff1916145b806109cf57506109ce826118de565b5b9050919050565b6060600080546109e590613040565b80601f0160208091040260200160405190810160405280929190818152602001828054610a1190613040565b8015610a5e5780601f10610a3357610100808354040283529160200191610a5e565b820191906000526020600020905b815481529060010190602001808311610a4157829003601f168201915b5050505050905090565b6000610a7382611948565b50610a7d826119d0565b9050919050565b610a968282610a91611a0d565b611a15565b5050565b610aa2611a27565b80601060006101000a81548160ff02191690831515021790555050565b610ac7611a27565b80600b8190555050565b600073ffffffffffffffffffffffffffffffffffffffff168273ffffffffffffffffffffffffffffffffffffffff1603610b435760006040517f64a0ae92000000000000000000000000000000000000000000000000000000008152600401610b3a919061299e565b60405180910390fd5b6000610b578383610b52611a0d565b611aae565b90508373ffffffffffffffffffffffffffffffffffffffff168173ffffffffffffffffffffffffffffffffffffffff1614610bcd578382826040517f64283d7b000000000000000000000000000000000000000000000000000000008152600401610bc493929190613071565b60405180910390fd5b50505050565b610bdb611a27565b428111610c1d576040517f08c379a0000000000000000000000000000000000000000000000000000000008152600401610c149061311a565b60405180910390fd5b600f548110610c61576040517f08c379a0000000000000000000000000000000000000000000000000000000008152600401610c58906131ac565b60405180910390fd5b80600e8190555050565b610c73611a27565b6000610c7d611718565b905060005b8151811015610d075760126000838381518110610ca257610ca16131cc565b5b602002602001015173ffffffffffffffffffffffffffffffffffffffff1673ffffffffffffffffffffffffffffffffffffffff16815260200190815260200160002060006101000a81549060ff02191690558080610cff9061322a565b915050610c82565b5060005b8251811015610e16576011838281518110610d2957610d286131cc565b5b60200260200101519080600181540180825580915050600190039060005260206000200160009091909190916101000a81548173ffffffffffffffffffffffffffffffffffffffff021916908373ffffffffffffffffffffffffffffffffffffffff160217905550600160126000858481518110610daa57610da96131cc565b5b602002602001015173ffffffffffffffffffffffffffffffffffffffff1673ffffffffffffffffffffffffffffffffffffffff16815260200190815260200160002060006101000a81548160ff0219169083151502179055508080610e0e9061322a565b915050610d0b565b507f0d726ada81867bb7af35296692351e463236617eac73989190bf831e306fb13a82604051610e469190612faf565b60405180910390a15050565b610e5a611a27565b8060098190555050565b60126020528060005260406000206000915054906101000a900460ff1681565b610e8c611a27565b610e9461156a565b73ffffffffffffffffffffffffffffffffffffffff166108fc479081150290604051600060405180830381858888f19350505050158015610ed9573d6000803e3d6000fd5b50565b610ef783838360405180602001604052806000815250611648565b505050565b6000601060009054906101000a900460ff1615610f4e576040517f08c379a0000000000000000000000000000000000000000000000000000000008152600401610f45906132be565b60405180910390fd5b6000600e54421015610f95576040517f08c379a0000000000000000000000000000000000000000000000000000000008152600401610f8c9061332a565b60405180910390fd5b600e544210158015610fa85750600f5442105b1561104357601260003373ffffffffffffffffffffffffffffffffffffffff1673ffffffffffffffffffffffffffffffffffffffff16815260200190815260200160002060009054906101000a900460ff16611039576040517f08c379a0000000000000000000000000000000000000000000000000000000008152600401611030906133bc565b60405180910390fd5b60095490506110ea565b600f5442106110ae57600a549050601260003373ffffffffffffffffffffffffffffffffffffffff1673ffffffffffffffffffffffffffffffffffffffff16815260200190815260200160002060009054906101000a900460ff16156110a95760095490505b6110e9565b6040517f08c379a00000000000000000000000000000000000000000000000000000000081526004016110e090613428565b60405180910390fd5b5b8034101561112d576040517f08c379a000000000000000000000000000000000000000000000000000000000815260040161112490613494565b60405180910390fd5b600b54600d60003373ffffffffffffffffffffffffffffffffffffffff1673ffffffffffffffffffffffffffffffffffffffff16815260200190815260200160002054106111b0576040517f08c379a00000000000000000000000000000000000000000000000000000000081526004016111a790613526565b60405180910390fd5b600c54600754106111f6576040517f08c379a00000000000000000000000000000000000000000000000000000000081526004016111ed90613592565b60405180910390fd5b600d60003373ffffffffffffffffffffffffffffffffffffffff1673ffffffffffffffffffffffffffffffffffffffff16815260200190815260200160002060008154809291906112469061322a565b91905055506007600081548092919061125e9061322a565b9190505550600060075490506112748482611cc8565b813411156112cf573373ffffffffffffffffffffffffffffffffffffffff166108fc83346112a291906135b2565b9081150290604051600060405180830381858888f193505050501580156112cd573d6000803e3d6000fd5b505b8092505050919050565b6112e1611a27565b80600890816112f09190613792565b5050565b600b5481565b601060009054906101000a900460ff1681565b600061131882611948565b9050919050565b600f5481565b6008805461133290613040565b80601f016020809104026020016040519081016040528092919081815260200182805461135e90613040565b80156113ab5780601f10611380576101008083540402835291602001916113ab565b820191906000526020600020905b81548152906001019060200180831161138e57829003601f168201915b505050505081565b6113bb611a27565b4281116113fd576040517f08c379a00000000000000000000000000000000000000000000000000000000081526004016113f4906138d6565b60405180910390fd5b600e548111611441576040517f08c379a000000000000000000000000000000000000000000000000000000000815260040161143890613968565b60405180910390fd5b80600f8190555050565b60008073ffffffffffffffffffffffffffffffffffffffff168273ffffffffffffffffffffffffffffffffffffffff16036114be5760006040517f89c62b640000000000000000000000000000000000000000000000000000000081526004016114b5919061299e565b60405180910390fd5b600360008373ffffffffffffffffffffffffffffffffffffffff1673ffffffffffffffffffffffffffffffffffffffff168152602001908152602001600020549050919050565b61150d611a27565b6115176000611dc1565b565b611521611a27565b80600a8190555050565b6011818154811061153b57600080fd5b906000526020600020016000915054906101000a900473ffffffffffffffffffffffffffffffffffffffff1681565b6000600660009054906101000a900473ffffffffffffffffffffffffffffffffffffffff16905090565b6060600180546115a390613040565b80601f01602080910402602001604051908101604052809291908181526020018280546115cf90613040565b801561161c5780601f106115f15761010080835404028352916020019161161c565b820191906000526020600020905b8154815290600101906020018083116115ff57829003601f168201915b5050505050905090565b600a5481565b61163e611637611a0d565b8383611e87565b5050565b600e5481565b611653848484610ad1565b61166761165e611a0d565b85858585611ff6565b50505050565b6060600073ffffffffffffffffffffffffffffffffffffffff16611690836121a7565b73ffffffffffffffffffffffffffffffffffffffff16036116e6576040517f08c379a00000000000000000000000000000000000000000000000000000000081526004016116dd906139fa565b60405180910390fd5b60086116f1836121e4565b604051602001611702929190613b25565b6040516020818303038152906040529050919050565b6060601180548060200260200160405190810160405280929190818152602001828054801561179c57602002820191906000526020600020905b8160009054906101000a900473ffffffffffffffffffffffffffffffffffffffff1673ffffffffffffffffffffffffffffffffffffffff1681526020019060010190808311611752575b5050505050905090565b600d6020528060005260406000206000915090505481565b600c5481565b6000600560008473ffffffffffffffffffffffffffffffffffffffff1673ffffffffffffffffffffffffffffffffffffffff16815260200190815260200160002060008373ffffffffffffffffffffffffffffffffffffffff1673ffffffffffffffffffffffffffffffffffffffff16815260200190815260200160002060009054906101000a900460ff16905092915050565b611860611a27565b600073ffffffffffffffffffffffffffffffffffffffff168173ffffffffffffffffffffffffffffffffffffffff16036118d25760006040517f1e4fbdf70000000000000000000000000000000000000000000000000000000081526004016118c9919061299e565b60405180910390fd5b6118db81611dc1565b50565b60007f01ffc9a7000000000000000000000000000000000000000000000000000000007bffffffffffffffffffffffffffffffffffffffffffffffffffffffff1916827bffffffffffffffffffffffffffffffffffffffffffffffffffffffff1916149050919050565b600080611954836121a7565b9050600073ffffffffffffffffffffffffffffffffffffffff168173ffffffffffffffffffffffffffffffffffffffff16036119c757826040517f7e2732890000000000000000000000000000000000000000000000000000000081526004016119be9190612768565b60405180910390fd5b80915050919050565b60006004600083815260200190815260200160002060009054906101000a900473ffffffffffffffffffffffffffffffffffffffff169050919050565b600033905090565b611a2283838360016122b2565b505050565b611a2f611a0d565b73ffffffffffffffffffffffffffffffffffffffff16611a4d61156a565b73ffffffffffffffffffffffffffffffffffffffff1614611aac57611a70611a0d565b6040517f118cdaa7000000000000000000000000000000000000000000000000000000008152600401611aa3919061299e565b60405180910390fd5b565b600080611aba846121a7565b9050600073ffffffffffffffffffffffffffffffffffffffff168373ffffffffffffffffffffffffffffffffffffffff1614611afc57611afb818486612477565b5b600073ffffffffffffffffffffffffffffffffffffffff168173ffffffffffffffffffffffffffffffffffffffff1614611b8d57611b3e6000856000806122b2565b6001600360008373ffffffffffffffffffffffffffffffffffffffff1673ffffffffffffffffffffffffffffffffffffffff168152602001908152602001600020600082825403925050819055505b600073ffffffffffffffffffffffffffffffffffffffff168573ffffffffffffffffffffffffffffffffffffffff1614611c10576001600360008773ffffffffffffffffffffffffffffffffffffffff1673ffffffffffffffffffffffffffffffffffffffff168152602001908152602001600020600082825401925050819055505b846002600086815260200190815260200160002060006101000a81548173ffffffffffffffffffffffffffffffffffffffff021916908373ffffffffffffffffffffffffffffffffffffffff160217905550838573ffffffffffffffffffffffffffffffffffffffff168273ffffffffffffffffffffffffffffffffffffffff167fddf252ad1be2c89b69c2b068fc378daa952ba7f163c4a11628f55a4df523b3ef60405160405180910390a4809150509392505050565b600073ffffffffffffffffffffffffffffffffffffffff168273ffffffffffffffffffffffffffffffffffffffff1603611d3a5760006040517f64a0ae92000000000000000000000000000000000000000000000000000000008152600401611d31919061299e565b60405180910390fd5b6000611d4883836000611aae565b9050600073ffffffffffffffffffffffffffffffffffffffff168173ffffffffffffffffffffffffffffffffffffffff1614611dbc5760006040517f73c6ac6e000000000000000000000000000000000000000000000000000000008152600401611db3919061299e565b60405180910390fd5b505050565b6000600660009054906101000a900473ffffffffffffffffffffffffffffffffffffffff16905081600660006101000a81548173ffffffffffffffffffffffffffffffffffffffff021916908373ffffffffffffffffffffffffffffffffffffffff1602179055508173ffffffffffffffffffffffffffffffffffffffff168173ffffffffffffffffffffffffffffffffffffffff167f8be0079c531659141344cd1fd0a4f28419497f9722a3daafe3b4186f6b6457e060405160405180910390a35050565b600073ffffffffffffffffffffffffffffffffffffffff168273ffffffffffffffffffffffffffffffffffffffff1603611ef857816040517f5b08ba18000000000000000000000000000000000000000000000000000000008152600401611eef919061299e565b60405180910390fd5b80600560008573ffffffffffffffffffffffffffffffffffffffff1673ffffffffffffffffffffffffffffffffffffffff16815260200190815260200160002060008473ffffffffffffffffffffffffffffffffffffffff1673ffffffffffffffffffffffffffffffffffffffff16815260200190815260200160002060006101000a81548160ff0219169083151502179055508173ffffffffffffffffffffffffffffffffffffffff168373ffffffffffffffffffffffffffffffffffffffff167f17307eab39ab6107e8899845ad3d59bd9653f200f220920489ca2b5937696c3183604051611fe99190612837565b60405180910390a3505050565b60008373ffffffffffffffffffffffffffffffffffffffff163b11156121a0578273ffffffffffffffffffffffffffffffffffffffff1663150b7a02868685856040518563ffffffff1660e01b81526004016120559493929190613ba9565b6020604051808303816000875af192505050801561209157506040513d601f19601f8201168201806040525081019061208e9190613c0a565b60015b612115573d80600081146120c1576040519150601f19603f3d011682016040523d82523d6000602084013e6120c6565b606091505b50600081510361210d57836040517f64a0ae92000000000000000000000000000000000000000000000000000000008152600401612104919061299e565b60405180910390fd5b805181602001fd5b63150b7a0260e01b7bffffffffffffffffffffffffffffffffffffffffffffffffffffffff1916817bffffffffffffffffffffffffffffffffffffffffffffffffffffffff19161461219e57836040517f64a0ae92000000000000000000000000000000000000000000000000000000008152600401612195919061299e565b60405180910390fd5b505b5050505050565b60006002600083815260200190815260200160002060009054906101000a900473ffffffffffffffffffffffffffffffffffffffff169050919050565b6060600060016121f38461253b565b01905060008167ffffffffffffffff81111561221257612211612ad6565b5b6040519080825280601f01601f1916602001820160405280156122445781602001600182028036833780820191505090505b509050600082602001820190505b6001156122a7578080600190039150507f3031323334353637383961626364656600000000000000000000000000000000600a86061a8153600a858161229b5761229a613c37565b5b04945060008503612252575b819350505050919050565b80806122eb5750600073ffffffffffffffffffffffffffffffffffffffff168273ffffffffffffffffffffffffffffffffffffffff1614155b1561241f5760006122fb84611948565b9050600073ffffffffffffffffffffffffffffffffffffffff168373ffffffffffffffffffffffffffffffffffffffff161415801561236657508273ffffffffffffffffffffffffffffffffffffffff168173ffffffffffffffffffffffffffffffffffffffff1614155b8015612379575061237781846117c4565b155b156123bb57826040517fa9fbf51f0000000000000000000000000000000000000000000000000000000081526004016123b2919061299e565b60405180910390fd5b811561241d57838573ffffffffffffffffffffffffffffffffffffffff168273ffffffffffffffffffffffffffffffffffffffff167f8c5be1e5ebec7d5bd14f71427d1e84f3dd0314c0f7b2291e5b200ac8c7c3b92560405160405180910390a45b505b836004600085815260200190815260200160002060006101000a81548173ffffffffffffffffffffffffffffffffffffffff021916908373ffffffffffffffffffffffffffffffffffffffff16021790555050505050565b61248283838361268e565b61253657600073ffffffffffffffffffffffffffffffffffffffff168373ffffffffffffffffffffffffffffffffffffffff16036124f757806040517f7e2732890000000000000000000000000000000000000000000000000000000081526004016124ee9190612768565b60405180910390fd5b81816040517f177e802f00000000000000000000000000000000000000000000000000000000815260040161252d929190613c66565b60405180910390fd5b505050565b600080600090507a184f03e93ff9f4daa797ed6e38ed64bf6a1f0100000000000000008310612599577a184f03e93ff9f4daa797ed6e38ed64bf6a1f010000000000000000838161258f5761258e613c37565b5b0492506040810190505b6d04ee2d6d415b85acef810000000083106125d6576d04ee2d6d415b85acef810000000083816125cc576125cb613c37565b5b0492506020810190505b662386f26fc10000831061260557662386f26fc1000083816125fb576125fa613c37565b5b0492506010810190505b6305f5e100831061262e576305f5e100838161262457612623613c37565b5b0492506008810190505b612710831061265357612710838161264957612648613c37565b5b0492506004810190505b60648310612676576064838161266c5761266b613c37565b5b0492506002810190505b600a8310612685576001810190505b80915050919050565b60008073ffffffffffffffffffffffffffffffffffffffff168373ffffffffffffffffffffffffffffffffffffffff161415801561274657508273ffffffffffffffffffffffffffffffffffffffff168473ffffffffffffffffffffffffffffffffffffffff161480612707575061270684846117c4565b5b8061274557508273ffffffffffffffffffffffffffffffffffffffff1661272d836119d0565b73ffffffffffffffffffffffffffffffffffffffff16145b5b90509392505050565b6000819050919050565b6127628161274f565b82525050565b600060208201905061277d6000830184612759565b92915050565b6000604051905090565b600080fd5b600080fd5b60007fffffffff0000000000000000000000000000000000000000000000000000000082169050919050565b6127cc81612797565b81146127d757600080fd5b50565b6000813590506127e9816127c3565b92915050565b6000602082840312156128055761280461278d565b5b6000612813848285016127da565b91505092915050565b60008115159050919050565b6128318161281c565b82525050565b600060208201905061284c6000830184612828565b92915050565b600081519050919050565b600082825260208201905092915050565b60005b8381101561288c578082015181840152602081019050612871565b60008484015250505050565b6000601f19601f8301169050919050565b60006128b482612852565b6128be818561285d565b93506128ce81856020860161286e565b6128d781612898565b840191505092915050565b600060208201905081810360008301526128fc81846128a9565b905092915050565b61290d8161274f565b811461291857600080fd5b50565b60008135905061292a81612904565b92915050565b6000602082840312156129465761294561278d565b5b60006129548482850161291b565b91505092915050565b600073ffffffffffffffffffffffffffffffffffffffff82169050919050565b60006129888261295d565b9050919050565b6129988161297d565b82525050565b60006020820190506129b3600083018461298f565b92915050565b6129c28161297d565b81146129cd57600080fd5b50565b6000813590506129df816129b9565b92915050565b600080604083850312156129fc576129fb61278d565b5b6000612a0a858286016129d0565b9250506020612a1b8582860161291b565b9150509250929050565b612a2e8161281c565b8114612a3957600080fd5b50565b600081359050612a4b81612a25565b92915050565b600060208284031215612a6757612a6661278d565b5b6000612a7584828501612a3c565b91505092915050565b600080600060608486031215612a9757612a9661278d565b5b6000612aa5868287016129d0565b9350506020612ab6868287016129d0565b9250506040612ac78682870161291b565b9150509250925092565b600080fd5b7f4e487b7100000000000000000000000000000000000000000000000000000000600052604160045260246000fd5b612b0e82612898565b810181811067ffffffffffffffff82111715612b2d57612b2c612ad6565b5b80604052505050565b6000612b40612783565b9050612b4c8282612b05565b919050565b600067ffffffffffffffff821115612b6c57612b6b612ad6565b5b602082029050602081019050919050565b600080fd5b6000612b95612b9084612b51565b612b36565b90508083825260208201905060208402830185811115612bb857612bb7612b7d565b5b835b81811015612be15780612bcd88826129d0565b845260208401935050602081019050612bba565b5050509392505050565b600082601f830112612c0057612bff612ad1565b5b8135612c10848260208601612b82565b91505092915050565b600060208284031215612c2f57612c2e61278d565b5b600082013567ffffffffffffffff811115612c4d57612c4c612792565b5b612c5984828501612beb565b91505092915050565b600060208284031215612c7857612c7761278d565b5b6000612c86848285016129d0565b91505092915050565b600080fd5b600067ffffffffffffffff821115612caf57612cae612ad6565b5b612cb882612898565b9050602081019050919050565b82818337600083830152505050565b6000612ce7612ce284612c94565b612b36565b905082815260208101848484011115612d0357612d02612c8f565b5b612d0e848285612cc5565b509392505050565b600082601f830112612d2b57612d2a612ad1565b5b8135612d3b848260208601612cd4565b91505092915050565b600060208284031215612d5a57612d5961278d565b5b600082013567ffffffffffffffff811115612d7857612d77612792565b5b612d8484828501612d16565b91505092915050565b60008060408385031215612da457612da361278d565b5b6000612db2858286016129d0565b9250506020612dc385828601612a3c565b9150509250929050565b600067ffffffffffffffff821115612de857612de7612ad6565b5b612df182612898565b9050602081019050919050565b6000612e11612e0c84612dcd565b612b36565b905082815260208101848484011115612e2d57612e2c612c8f565b5b612e38848285612cc5565b509392505050565b600082601f830112612e5557612e54612ad1565b5b8135612e65848260208601612dfe565b91505092915050565b60008060008060808587031215612e8857612e8761278d565b5b6000612e96878288016129d0565b9450506020612ea7878288016129d0565b9350506040612eb88782880161291b565b925050606085013567ffffffffffffffff811115612ed957612ed8612792565b5b612ee587828801612e40565b91505092959194509250565b600081519050919050565b600082825260208201905092915050565b6000819050602082019050919050565b612f268161297d565b82525050565b6000612f388383612f1d565b60208301905092915050565b6000602082019050919050565b6000612f5c82612ef1565b612f668185612efc565b9350612f7183612f0d565b8060005b83811015612fa2578151612f898882612f2c565b9750612f9483612f44565b925050600181019050612f75565b5085935050505092915050565b60006020820190508181036000830152612fc98184612f51565b905092915050565b60008060408385031215612fe857612fe761278d565b5b6000612ff6858286016129d0565b9250506020613007858286016129d0565b9150509250929050565b7f4e487b7100000000000000000000000000000000000000000000000000000000600052602260045260246000fd5b6000600282049050600182168061305857607f821691505b60208210810361306b5761306a613011565b5b50919050565b6000606082019050613086600083018661298f565b6130936020830185612759565b6130a0604083018461298f565b949350505050565b7f50726573616c652073746172742074696d65206d75737420626520696e20746860008201527f6520667574757265000000000000000000000000000000000000000000000000602082015250565b600061310460288361285d565b915061310f826130a8565b604082019050919050565b60006020820190508181036000830152613133816130f7565b9050919050565b7f50726573616c652073746172742074696d65206d757374206265206265666f7260008201527f65207075626c69632073616c652073746172742074696d650000000000000000602082015250565b600061319660388361285d565b91506131a18261313a565b604082019050919050565b600060208201905081810360008301526131c581613189565b9050919050565b7f4e487b7100000000000000000000000000000000000000000000000000000000600052603260045260246000fd5b7f4e487b7100000000000000000000000000000000000000000000000000000000600052601160045260246000fd5b60006132358261274f565b91507fffffffffffffffffffffffffffffffffffffffffffffffffffffffffffffffff8203613267576132666131fb565b5b600182019050919050565b7f4d696e74696e672069732063757272656e746c79207061757365640000000000600082015250565b60006132a8601b8361285d565b91506132b382613272565b602082019050919050565b600060208201905081810360008301526132d78161329b565b9050919050565b7f4d696e74696e6720686173206e6f742073746172746564207965740000000000600082015250565b6000613314601b8361285d565b915061331f826132de565b602082019050919050565b6000602082019050818103600083015261334381613307565b9050919050565b7f596f7520617265206e6f742077686974656c697374656420666f72207468652060008201527f70726573616c6500000000000000000000000000000000000000000000000000602082015250565b60006133a660278361285d565b91506133b18261334a565b604082019050919050565b600060208201905081810360008301526133d581613399565b9050919050565b7f556e6b6e6f776e206d696e74696e672073746167650000000000000000000000600082015250565b600061341260158361285d565b915061341d826133dc565b602082019050919050565b6000602082019050818103600083015261344181613405565b9050919050565b7f4e6f7420656e6f756768204554482073656e7420666f72206d696e74696e6700600082015250565b600061347e601f8361285d565b915061348982613448565b602082019050919050565b600060208201905081810360008301526134ad81613471565b9050919050565b7f596f752068617665207265616368656420746865206d6178696d756d206d696e60008201527f74206c696d697400000000000000000000000000000000000000000000000000602082015250565b600061351060278361285d565b915061351b826134b4565b604082019050919050565b6000602082019050818103600083015261353f81613503565b9050919050565b7f416c6c204e4654732068617665206265656e206d696e74656400000000000000600082015250565b600061357c60198361285d565b915061358782613546565b602082019050919050565b600060208201905081810360008301526135ab8161356f565b9050919050565b60006135bd8261274f565b91506135c88361274f565b92508282039050818111156135e0576135df6131fb565b5b92915050565b60008190508160005260206000209050919050565b60006020601f8301049050919050565b600082821b905092915050565b6000600883026136487fffffffffffffffffffffffffffffffffffffffffffffffffffffffffffffffff8261360b565b613652868361360b565b95508019841693508086168417925050509392505050565b6000819050919050565b600061368f61368a6136858461274f565b61366a565b61274f565b9050919050565b6000819050919050565b6136a983613674565b6136bd6136b582613696565b848454613618565b825550505050565b600090565b6136d26136c5565b6136dd8184846136a0565b505050565b5b81811015613701576136f66000826136ca565b6001810190506136e3565b5050565b601f82111561374657613717816135e6565b613720846135fb565b8101602085101561372f578190505b61374361373b856135fb565b8301826136e2565b50505b505050565b600082821c905092915050565b60006137696000198460080261374b565b1980831691505092915050565b60006137828383613758565b9150826002028217905092915050565b61379b82612852565b67ffffffffffffffff8111156137b4576137b3612ad6565b5b6137be8254613040565b6137c9828285613705565b600060209050601f8311600181146137fc57600084156137ea578287015190505b6137f48582613776565b86555061385c565b601f19841661380a866135e6565b60005b828110156138325784890151825560018201915060208501945060208101905061380d565b8683101561384f578489015161384b601f891682613758565b8355505b6001600288020188555050505b505050505050565b7f5075626c69632073616c652073746172742074696d65206d757374206265206960008201527f6e20746865206675747572650000000000000000000000000000000000000000602082015250565b60006138c0602c8361285d565b91506138cb82613864565b604082019050919050565b600060208201905081810360008301526138ef816138b3565b9050919050565b7f5075626c69632073616c652073746172742074696d65206d757374206265206160008201527f667465722070726573616c652073746172742074696d65000000000000000000602082015250565b600061395260378361285d565b915061395d826138f6565b604082019050919050565b6000602082019050818103600083015261398181613945565b9050919050565b7f4552433732314d657461646174613a2055524920717565727920666f72206e6f60008201527f6e6578697374656e7420746f6b656e0000000000000000000000000000000000602082015250565b60006139e4602f8361285d565b91506139ef82613988565b604082019050919050565b60006020820190508181036000830152613a13816139d7565b9050919050565b600081905092915050565b60008154613a3281613040565b613a3c8186613a1a565b94506001821660008114613a575760018114613a6c57613a9f565b60ff1983168652811515820286019350613a9f565b613a75856135e6565b60005b83811015613a9757815481890152600182019150602081019050613a78565b838801955050505b50505092915050565b6000613ab382612852565b613abd8185613a1a565b9350613acd81856020860161286e565b80840191505092915050565b7f2e6a736f6e000000000000000000000000000000000000000000000000000000600082015250565b6000613b0f600583613a1a565b9150613b1a82613ad9565b600582019050919050565b6000613b318285613a25565b9150613b3d8284613aa8565b9150613b4882613b02565b91508190509392505050565b600081519050919050565b600082825260208201905092915050565b6000613b7b82613b54565b613b858185613b5f565b9350613b9581856020860161286e565b613b9e81612898565b840191505092915050565b6000608082019050613bbe600083018761298f565b613bcb602083018661298f565b613bd86040830185612759565b8181036060830152613bea8184613b70565b905095945050505050565b600081519050613c04816127c3565b92915050565b600060208284031215613c2057613c1f61278d565b5b6000613c2e84828501613bf5565b91505092915050565b7f4e487b7100000000000000000000000000000000000000000000000000000000600052601260045260246000fd5b6000604082019050613c7b600083018561298f565b613c886020830184612759565b939250505056fea2646970667358221220a421032452d39bcf1ec81e926318914121b5ecfd8d8f1e11526344f20e6b874f64736f6c63430008140033",
  "linkReferences": {},
  "deployedLinkReferences": {}
}